{
  "_format": "hh-sol-artifact-1",
  "contractName": "DocumentRegistryTemplate",
  "sourceName": "contracts/DocumentRegistryTemplate.sol",
  "abi": [
    {
      "inputs": [
        {
          "internalType": "address",
          "name": "initialOwner",
          "type": "address"
        },
        {
          "internalType": "address",
          "name": "_revocationRegistry",
          "type": "address"
        }
      ],
      "stateMutability": "nonpayable",
      "type": "constructor"
    },
    {
      "anonymous": false,
      "inputs": [
        {
          "indexed": true,
          "internalType": "bytes32",
          "name": "docId",
          "type": "bytes32"
        },
        {
          "indexed": true,
          "internalType": "bytes32",
          "name": "docHash",
          "type": "bytes32"
        },
        {
          "indexed": true,
          "internalType": "address",
          "name": "issuer",
          "type": "address"
        },
        {
          "indexed": false,
          "internalType": "string",
          "name": "uri",
          "type": "string"
        },
        {
          "indexed": false,
          "internalType": "uint256",
          "name": "timestamp",
          "type": "uint256"
        }
      ],
      "name": "DocumentRegistered",
      "type": "event"
    },
    {
      "anonymous": false,
      "inputs": [
        {
          "indexed": true,
          "internalType": "address",
          "name": "previousOwner",
          "type": "address"
        },
        {
          "indexed": true,
          "internalType": "address",
          "name": "newOwner",
          "type": "address"
        }
      ],
      "name": "OwnershipTransferred",
      "type": "event"
    },
    {
      "inputs": [],
      "name": "owner",
      "outputs": [
        {
          "internalType": "address",
          "name": "",
          "type": "address"
        }
      ],
      "stateMutability": "view",
      "type": "function"
    },
    {
      "inputs": [
        {
          "internalType": "bytes32",
          "name": "docId",
          "type": "bytes32"
        },
        {
          "internalType": "bytes32",
          "name": "docHash",
          "type": "bytes32"
        },
        {
          "internalType": "string",
          "name": "uri",
          "type": "string"
        }
      ],
      "name": "registerDocument",
      "outputs": [],
      "stateMutability": "nonpayable",
      "type": "function"
    },
    {
      "inputs": [],
      "name": "revocationRegistry",
      "outputs": [
        {
          "internalType": "address",
          "name": "",
          "type": "address"
        }
      ],
      "stateMutability": "view",
      "type": "function"
    },
    {
      "inputs": [
        {
          "internalType": "address",
          "name": "newOwner",
          "type": "address"
        }
      ],
      "name": "transferOwnership",
      "outputs": [],
      "stateMutability": "nonpayable",
      "type": "function"
    },
    {
      "inputs": [
        {
          "internalType": "bytes32",
          "name": "docId",
          "type": "bytes32"
        },
        {
          "internalType": "bytes32",
          "name": "docHash",
          "type": "bytes32"
        }
      ],
      "name": "verifyDocument",
      "outputs": [
        {
          "internalType": "bool",
          "name": "",
          "type": "bool"
        }
      ],
      "stateMutability": "view",
      "type": "function"
    }
  ],
  "bytecode": "0x608060405234801561001057600080fd5b506040516108b03803806108b083398101604081905261002f916100c6565b6001600160a01b0382166100795760405162461bcd60e51b815260206004820152600d60248201526c24b73b30b634b21037bbb732b960991b604482015260640160405180910390fd5b600080546001600160a01b039384166001600160a01b031991821617909155600180549290931691161790556100f9565b80516001600160a01b03811681146100c157600080fd5b919050565b600080604083850312156100d957600080fd5b6100e2836100aa565b91506100f0602084016100aa565b90509250929050565b6107a8806101086000396000f3fe608060405234801561001057600080fd5b50600436106100575760003560e01c80631626e1a91461005c5780638da5cb5b146100715780638fa9a8ce146100a1578063f0f2740d146100c4578063f2fde38b146100d7575b600080fd5b61006f61006a366004610508565b6100ea565b005b600054610084906001600160a01b031681565b6040516001600160a01b0390911681526020015b60405180910390f35b6100b46100af366004610588565b61033a565b6040519015158152602001610098565b600154610084906001600160a01b031681565b61006f6100e53660046105aa565b61042c565b6000546001600160a01b031633146101355760405162461bcd60e51b81526020600482015260096024820152682737ba1037bbb732b960b91b60448201526064015b60405180910390fd5b60008481526002602081905260409091200154156101875760405162461bcd60e51b815260206004820152600f60248201526e446f63756d656e742065786973747360881b604482015260640161012c565b826101c35760405162461bcd60e51b815260206004820152600c60248201526b092dcecc2d8d2c840d0c2e6d60a31b604482015260640161012c565b6040518060800160405280848152602001336001600160a01b0316815260200142815260200183838080601f01602080910402602001604051908101604052809392919081815260200183838082843760009201829052509390945250508681526002602081815260409283902085518155908501516001820180546001600160a01b0319166001600160a01b039092169190911790559184015190820155606083015190915060038201906102799082610679565b50506001546001600160a01b03161590506102ed5760015460405163387ea3a160e21b8152600481018590526001600160a01b039091169063e1fa8e8490602401600060405180830381600087803b1580156102d457600080fd5b505af11580156102e8573d6000803e3d6000fd5b505050505b336001600160a01b031683857ff2a57d6483e392844eb538038be119b1fcc2570fa8c45d8cb73a7616160c0e1c85854260405161032c93929190610739565b60405180910390a450505050565b600082815260026020818152604080842081516080810183528154815260018201546001600160a01b0316938101939093529283015490820152600382018054849391606084019161038b906105f0565b80601f01602080910402602001604051908101604052809291908181526020018280546103b7906105f0565b80156104045780601f106103d957610100808354040283529160200191610404565b820191906000526020600020905b8154815290600101906020018083116103e757829003601f168201915b505050505081525050905080604001516000141580156104245750805183145b949350505050565b6000546001600160a01b031633146104725760405162461bcd60e51b81526020600482015260096024820152682737ba1037bbb732b960b91b604482015260640161012c565b6001600160a01b0381166104b85760405162461bcd60e51b815260206004820152600d60248201526c24b73b30b634b21037bbb732b960991b604482015260640161012c565b600080546001600160a01b038381166001600160a01b0319831681178455604051919092169283917f8be0079c531659141344cd1fd0a4f28419497f9722a3daafe3b4186f6b6457e09190a35050565b6000806000806060858703121561051e57600080fd5b8435935060208501359250604085013567ffffffffffffffff8082111561054457600080fd5b818701915087601f83011261055857600080fd5b81358181111561056757600080fd5b88602082850101111561057957600080fd5b95989497505060200194505050565b6000806040838503121561059b57600080fd5b50508035926020909101359150565b6000602082840312156105bc57600080fd5b81356001600160a01b03811681146105d357600080fd5b9392505050565b634e487b7160e01b600052604160045260246000fd5b600181811c9082168061060457607f821691505b60208210810361062457634e487b7160e01b600052602260045260246000fd5b50919050565b601f82111561067457600081815260208120601f850160051c810160208610156106515750805b601f850160051c820191505b818110156106705782815560010161065d565b5050505b505050565b815167ffffffffffffffff811115610693576106936105da565b6106a7816106a184546105f0565b8461062a565b602080601f8311600181146106dc57600084156106c45750858301515b600019600386901b1c1916600185901b178555610670565b600085815260208120601f198616915b8281101561070b578886015182559484019460019091019084016106ec565b50858210156107295787850151600019600388901b60f8161c191681555b5050505050600190811b01905550565b604081528260408201528284606083013760006060848301015260006060601f19601f860116830101905082602083015294935050505056fea26469706673582212207395e6a1a3a379231956fc13185051d2a9e4dda7d6ba376c9c4adff4ef7c4b1064736f6c63430008140033",
  "linkReferences": {},
  "deployedLinkReferences": {}
}