{
  "_format": "hh-sol-artifact-1",
  "contractName": "RevocationRegistry",
  "sourceName": "contracts/RevocationRegistry.sol",
  "abi": [
    {
      "inputs": [
        {
          "internalType": "address",
          "name": "initialOwner",
          "type": "address"
        }
      ],
      "stateMutability": "nonpayable",
      "type": "constructor"
    },
    {
      "anonymous": false,
      "inputs": [
        {
          "indexed": true,
          "internalType": "address",
          "name": "previousOwner",
          "type": "address"
        },
        {
          "indexed": true,
          "internalType": "address",
          "name": "newOwner",
          "type": "address"
        }
      ],
      "name": "OwnershipTransferred",
      "type": "event"
    },
    {
      "anonymous": false,
      "inputs": [
        {
          "indexed": true,
          "internalType": "bytes32",
          "name": "hash",
          "type": "bytes32"
        },
        {
          "indexed": false,
          "internalType": "uint256",
          "name": "timestamp",
          "type": "uint256"
        }
      ],
      "name": "Registered",
      "type": "event"
    },
    {
      "anonymous": false,
      "inputs": [
        {
          "indexed": true,
          "internalType": "bytes32",
          "name": "hash",
          "type": "bytes32"
        },
        {
          "indexed": false,
          "internalType": "enum RevocationRegistry.RevocationReason",
          "name": "reason",
          "type": "uint8"
        },
        {
          "indexed": false,
          "internalType": "uint256",
          "name": "timestamp",
          "type": "uint256"
        }
      ],
      "name": "Revoked",
      "type": "event"
    },
    {
      "anonymous": false,
      "inputs": [
        {
          "indexed": true,
          "internalType": "address",
          "name": "contractAddress",
          "type": "address"
        }
      ],
      "name": "VerificationContractSet",
      "type": "event"
    },
    {
      "inputs": [
        {
          "internalType": "bytes32",
          "name": "hash",
          "type": "bytes32"
        }
      ],
      "name": "getRevocationReason",
      "outputs": [
        {
          "internalType": "enum RevocationRegistry.RevocationReason",
          "name": "",
          "type": "uint8"
        }
      ],
      "stateMutability": "view",
      "type": "function"
    },
    {
      "inputs": [
        {
          "internalType": "bytes32",
          "name": "hash",
          "type": "bytes32"
        }
      ],
      "name": "getStatus",
      "outputs": [
        {
          "internalType": "bool",
          "name": "exists",
          "type": "bool"
        },
        {
          "internalType": "bool",
          "name": "valid",
          "type": "bool"
        },
        {
          "internalType": "enum RevocationRegistry.RevocationReason",
          "name": "reason",
          "type": "uint8"
        }
      ],
      "stateMutability": "view",
      "type": "function"
    },
    {
      "inputs": [
        {
          "internalType": "bytes32",
          "name": "hash",
          "type": "bytes32"
        }
      ],
      "name": "isRegistered",
      "outputs": [
        {
          "internalType": "bool",
          "name": "",
          "type": "bool"
        }
      ],
      "stateMutability": "view",
      "type": "function"
    },
    {
      "inputs": [
        {
          "internalType": "bytes32",
          "name": "hash",
          "type": "bytes32"
        }
      ],
      "name": "isRevoked",
      "outputs": [
        {
          "internalType": "bool",
          "name": "",
          "type": "bool"
        }
      ],
      "stateMutability": "view",
      "type": "function"
    },
    {
      "inputs": [
        {
          "internalType": "bytes32",
          "name": "hash",
          "type": "bytes32"
        }
      ],
      "name": "isValid",
      "outputs": [
        {
          "internalType": "bool",
          "name": "",
          "type": "bool"
        }
      ],
      "stateMutability": "view",
      "type": "function"
    },
    {
      "inputs": [],
      "name": "owner",
      "outputs": [
        {
          "internalType": "address",
          "name": "",
          "type": "address"
        }
      ],
      "stateMutability": "view",
      "type": "function"
    },
    {
      "inputs": [
        {
          "internalType": "bytes32",
          "name": "hash",
          "type": "bytes32"
        }
      ],
      "name": "register",
      "outputs": [],
      "stateMutability": "nonpayable",
      "type": "function"
    },
    {
      "inputs": [
        {
          "internalType": "bytes32",
          "name": "hash",
          "type": "bytes32"
        },
        {
          "internalType": "enum RevocationRegistry.RevocationReason",
          "name": "reason",
          "type": "uint8"
        }
      ],
      "name": "revoke",
      "outputs": [],
      "stateMutability": "nonpayable",
      "type": "function"
    },
    {
      "inputs": [
        {
          "internalType": "address",
          "name": "_verificationContract",
          "type": "address"
        }
      ],
      "name": "setVerificationContract",
      "outputs": [],
      "stateMutability": "nonpayable",
      "type": "function"
    },
    {
      "inputs": [
        {
          "internalType": "address",
          "name": "newOwner",
          "type": "address"
        }
      ],
      "name": "transferOwnership",
      "outputs": [],
      "stateMutability": "nonpayable",
      "type": "function"
    },
    {
      "inputs": [],
      "name": "verificationContract",
      "outputs": [
        {
          "internalType": "address",
          "name": "",
          "type": "address"
        }
      ],
      "stateMutability": "view",
      "type": "function"
    }
  ],
  "bytecode": "0x608060405234801561001057600080fd5b5060405161093238038061093283398101604081905261002f9161009e565b6001600160a01b0381166100795760405162461bcd60e51b815260206004820152600d60248201526c24b73b30b634b21037bbb732b960991b604482015260640160405180910390fd5b600080546001600160a01b0319166001600160a01b03929092169190911790556100ce565b6000602082840312156100b057600080fd5b81516001600160a01b03811681146100c757600080fd5b9392505050565b610855806100dd6000396000f3fe608060405234801561001057600080fd5b50600436106100a95760003560e01c80637e222661116100715780637e222661146101725780638da5cb5b1461019d578063917758fe146101b0578063e1fa8e84146101c5578063f2fde38b146101d8578063fb48d6be146101eb57600080fd5b806310832da0146100ae57806327258b22146100e75780634294857f1461011a5780635de28ae01461013d5780636a9385671461015f575b600080fd5b6100d16100bc3660046106f8565b60009081526004602052604090205460ff1690565b6040516100de9190610749565b60405180910390f35b61010a6100f53660046106f8565b60009081526002602052604090205460ff1690565b60405190151581526020016100de565b61010a6101283660046106f8565b60009081526003602052604090205460ff1690565b61015061014b3660046106f8565b6101fe565b6040516100de93929190610757565b61010a61016d3660046106f8565b61024b565b600154610185906001600160a01b031681565b6040516001600160a01b0390911681526020016100de565b600054610185906001600160a01b031681565b6101c36101be36600461077d565b61027e565b005b6101c36101d33660046106f8565b61042c565b6101c36101e63660046107b1565b610532565b6101c36101f93660046107b1565b6105f2565b60008181526002602052604081205460ff16908082801561022e575060008481526003602052604090205460ff16155b60009485526004602052604090942054929460ff90931692915050565b60008181526002602052604081205460ff168015610278575060008281526003602052604090205460ff16155b92915050565b6000546001600160a01b031633146102b15760405162461bcd60e51b81526004016102a8906107e1565b60405180910390fd5b60008281526002602052604090205460ff166103005760405162461bcd60e51b815260206004820152600e60248201526d139bdd081c9959da5cdd195c995960921b60448201526064016102a8565b60008281526003602052604090205460ff16156103515760405162461bcd60e51b815260206004820152600f60248201526e105b1c9958591e481c995d9bdad959608a1b60448201526064016102a8565b600081600a81111561036557610365610711565b036103a85760405162461bcd60e51b815260206004820152601360248201527226bab9ba10383937bb34b232903932b0b9b7b760691b60448201526064016102a8565b60008281526003602090815260408083208054600160ff19918216811790925560049093529220805484939192169083600a8111156103e9576103e9610711565b0217905550817f542e448e88bbdc01179318d788377d398c8166e6b55fc57a777e4f75e8ef31ec8242604051610420929190610804565b60405180910390a25050565b6001546001600160a01b031633146104865760405162461bcd60e51b815260206004820152601960248201527f4e6f7420766572696669636174696f6e20636f6e74726163740000000000000060448201526064016102a8565b60008181526002602052604090205460ff16156104da5760405162461bcd60e51b8152602060048201526012602482015271105b1c9958591e481c9959da5cdd195c995960721b60448201526064016102a8565b60008181526002602052604090819020805460ff191660011790555181907fc8704a622f3eb8c9fc5a2ddf1775b5ea7695359b13dec8111874e266a4d5fbc9906105279042815260200190565b60405180910390a250565b6000546001600160a01b0316331461055c5760405162461bcd60e51b81526004016102a8906107e1565b6001600160a01b0381166105a25760405162461bcd60e51b815260206004820152600d60248201526c24b73b30b634b21037bbb732b960991b60448201526064016102a8565b600080546001600160a01b038381166001600160a01b0319831681178455604051919092169283917f8be0079c531659141344cd1fd0a4f28419497f9722a3daafe3b4186f6b6457e09190a35050565b6000546001600160a01b0316331461061c5760405162461bcd60e51b81526004016102a8906107e1565b6001546001600160a01b0316156106665760405162461bcd60e51b815260206004820152600e60248201526d105b1c9958591e481b1a5b9ad95960921b60448201526064016102a8565b6001600160a01b0381166106ae5760405162461bcd60e51b815260206004820152600f60248201526e496e76616c6964206164647265737360881b60448201526064016102a8565b600180546001600160a01b0319166001600160a01b0383169081179091556040517fcf28f0596d765cb31a13e5edc200ab5b5b89ad072726fd214adf805a5bca913090600090a250565b60006020828403121561070a57600080fd5b5035919050565b634e487b7160e01b600052602160045260246000fd5b600b811061074557634e487b7160e01b600052602160045260246000fd5b9052565b602081016102788284610727565b83151581528215156020820152606081016107756040830184610727565b949350505050565b6000806040838503121561079057600080fd5b823591506020830135600b81106107a657600080fd5b809150509250929050565b6000602082840312156107c357600080fd5b81356001600160a01b03811681146107da57600080fd5b9392505050565b6020808252600990820152682737ba1037bbb732b960b91b604082015260600190565b604081016108128285610727565b826020830152939250505056fea26469706673582212205ed32eb9eab9de05c61e7d4ca6af246ae3a9027f56c4534367507efb13e6135a64736f6c63430008140033",
  "linkReferences": {},
  "deployedLinkReferences": {}
}