{
  "_format": "hh-sol-artifact-1",
  "contractName": "RegistryFactory",
  "sourceName": "contracts/RegistryFactory.sol",
  "abi": [
    {
      "anonymous": false,
      "inputs": [
        {
          "indexed": true,
          "internalType": "uint256",
          "name": "registryId",
          "type": "uint256"
        },
        {
          "indexed": true,
          "internalType": "address",
          "name": "owner",
          "type": "address"
        },
        {
          "indexed": false,
          "internalType": "uint8",
          "name": "templateType",
          "type": "uint8"
        },
        {
          "indexed": false,
          "internalType": "address",
          "name": "verificationRegistry",
          "type": "address"
        },
        {
          "indexed": false,
          "internalType": "address",
          "name": "revocationRegistry",
          "type": "address"
        },
        {
          "indexed": false,
          "internalType": "bytes32",
          "name": "configHash",
          "type": "bytes32"
        },
        {
          "indexed": false,
          "internalType": "string",
          "name": "name",
          "type": "string"
        }
      ],
      "name": "RegistryCreated",
      "type": "event"
    },
    {
      "inputs": [
        {
          "internalType": "uint8",
          "name": "templateType",
          "type": "uint8"
        },
        {
          "internalType": "bytes32",
          "name": "configHash",
          "type": "bytes32"
        },
        {
          "internalType": "string",
          "name": "name",
          "type": "string"
        }
      ],
      "name": "createRegistry",
      "outputs": [
        {
          "internalType": "uint256",
          "name": "registryId",
          "type": "uint256"
        },
        {
          "internalType": "address",
          "name": "verificationRegistry",
          "type": "address"
        },
        {
          "internalType": "address",
          "name": "revocationRegistry",
          "type": "address"
        }
      ],
      "stateMutability": "nonpayable",
      "type": "function"
    },
    {
      "inputs": [
        {
          "internalType": "address",
          "name": "owner",
          "type": "address"
        }
      ],
      "name": "getOwnerRegistries",
      "outputs": [
        {
          "internalType": "uint256[]",
          "name": "",
          "type": "uint256[]"
        }
      ],
      "stateMutability": "view",
      "type": "function"
    },
    {
      "inputs": [],
      "name": "nextRegistryId",
      "outputs": [
        {
          "internalType": "uint256",
          "name": "",
          "type": "uint256"
        }
      ],
      "stateMutability": "view",
      "type": "function"
    },
    {
      "inputs": [
        {
          "internalType": "uint256",
          "name": "",
          "type": "uint256"
        }
      ],
      "name": "registries",
      "outputs": [
        {
          "internalType": "uint256",
          "name": "id",
          "type": "uint256"
        },
        {
          "internalType": "address",
          "name": "owner",
          "type": "address"
        },
        {
          "internalType": "enum RegistryFactory.TemplateType",
          "name": "templateType",
          "type": "uint8"
        },
        {
          "internalType": "address",
          "name": "verificationRegistry",
          "type": "address"
        },
        {
          "internalType": "address",
          "name": "revocationRegistry",
          "type": "address"
        },
        {
          "internalType": "bytes32",
          "name": "configHash",
          "type": "bytes32"
        },
        {
          "internalType": "string",
          "name": "name",
          "type": "string"
        },
        {
          "internalType": "uint256",
          "name": "createdAt",
          "type": "uint256"
        }
      ],
      "stateMutability": "view",
      "type": "function"
    }
  ],
  "bytecode": "0x6080604052600160005534801561001557600080fd5b50612df6806100256000396000f3fe608060405234801561001057600080fd5b506004361061004c5760003560e01c80633af6b04f146100515780635321336d1461008e5780636347c900146100ae57806392acb0c0146100d5575b600080fd5b61006461005f3660046106b7565b6100ec565b604080519384526001600160a01b0392831660208501529116908201526060015b60405180910390f35b6100a161009c366004610746565b610538565b6040516100859190610776565b6100c16100bc3660046107ba565b6105a4565b6040516100859897969594939291906107e9565b6100de60005481565b604051908152602001610085565b60008080836101325760405162461bcd60e51b815260206004820152600d60248201526c13985b59481c995c5d5a5c9959609a1b60448201526064015b60405180910390fd5b600260ff881611156101795760405162461bcd60e51b815260206004820152601060248201526f496e76616c69642074656d706c61746560801b6044820152606401610129565b60008760ff166002811115610190576101906107d3565b90506000306040516101a190610683565b6001600160a01b039091168152602001604051809103906000f0801580156101cd573d6000803e3d6000fd5b50925082905060008260028111156101e7576101e76107d3565b036102355733836040516101fa90610690565b6001600160a01b03928316815291166020820152604001604051809103906000f08015801561022d573d6000803e3d6000fd5b5093506102a1565b6001826002811115610249576102496107d3565b0361025c5733836040516101fa9061069d565b338360405161026a906106aa565b6001600160a01b03928316815291166020820152604001604051809103906000f08015801561029d573d6000803e3d6000fd5b5093505b604051637da46b5f60e11b81526001600160a01b03858116600483015282169063fb48d6be90602401600060405180830381600087803b1580156102e457600080fd5b505af11580156102f8573d6000803e3d6000fd5b505060405163f2fde38b60e01b81523360048201526001600160a01b038416925063f2fde38b9150602401600060405180830381600087803b15801561033d57600080fd5b505af1158015610351573d6000803e3d6000fd5b50506000805492509050806103658361089e565b9091555060408051610100810182528281523360208201529196508101836002811115610394576103946107d3565b8152602001856001600160a01b03168152602001846001600160a01b0316815260200189815260200188888080601f0160208091040260200160405190810160405280939291908181526020018383808284376000920182905250938552505042602093840152508781526001808352604091829020845181559284015190830180546001600160a01b039092166001600160a01b0319831681178255928501519290916001600160a81b03191617600160a01b83600281111561045a5761045a6107d3565b021790555060608201516002820180546001600160a01b039283166001600160a01b031991821617909155608084015160038401805491909316911617905560a0820151600482015560c082015160058201906104b79082610964565b5060e09190910151600690910155336000818152600260209081526040808320805460018101825590845291909220018790555186907fe5f1799d2d6faf1bc67ea45be9676b895a57631e6f5af68c5db70c153e4d715490610524908d90899089908f908f908f90610a24565b60405180910390a350509450945094915050565b6001600160a01b03811660009081526002602090815260409182902080548351818402810184019094528084526060939283018282801561059857602002820191906000526020600020905b815481526020019060010190808311610584575b50505050509050919050565b60016020819052600091825260409091208054918101546002820154600383015460048401546005850180546001600160a01b0380871697600160a01b90970460ff16969581169594169391906105fa906108db565b80601f0160208091040260200160405190810160405280929190818152602001828054610626906108db565b80156106735780601f1061064857610100808354040283529160200191610673565b820191906000526020600020905b81548152906001019060200180831161065657829003601f168201915b5050505050908060060154905088565b61093280610a8383390190565b6108b0806113b583390190565b6108af80611c6583390190565b6108ad8061251483390190565b600080600080606085870312156106cd57600080fd5b843560ff811681146106de57600080fd5b935060208501359250604085013567ffffffffffffffff8082111561070257600080fd5b818701915087601f83011261071657600080fd5b81358181111561072557600080fd5b88602082850101111561073757600080fd5b95989497505060200194505050565b60006020828403121561075857600080fd5b81356001600160a01b038116811461076f57600080fd5b9392505050565b6020808252825182820181905260009190848201906040850190845b818110156107ae57835183529284019291840191600101610792565b50909695505050505050565b6000602082840312156107cc57600080fd5b5035919050565b634e487b7160e01b600052602160045260246000fd5b60006101008a8352602060018060a01b03808c168286015260038b1061081f57634e487b7160e01b600052602160045260246000fd5b8a6040860152808a1660608601528089166080860152508660a08501528160c085015285518083860152600092505b8083101561086d5786830182015185840161012001529181019161084e565b6101209250600083828701015282601f19601f83011686010193505050508260e08301529998505050505050505050565b6000600182016108be57634e487b7160e01b600052601160045260246000fd5b5060010190565b634e487b7160e01b600052604160045260246000fd5b600181811c908216806108ef57607f821691505b60208210810361090f57634e487b7160e01b600052602260045260246000fd5b50919050565b601f82111561095f57600081815260208120601f850160051c8101602086101561093c5750805b601f850160051c820191505b8181101561095b57828155600101610948565b5050505b505050565b815167ffffffffffffffff81111561097e5761097e6108c5565b6109928161098c84546108db565b84610915565b602080601f8311600181146109c757600084156109af5750858301515b600019600386901b1c1916600185901b17855561095b565b600085815260208120601f198616915b828110156109f6578886015182559484019460019091019084016109d7565b5085821015610a145787850151600019600388901b60f8161c191681555b5050505050600190811b01905550565b60ff871681526001600160a01b038681166020830152851660408201526060810184905260a06080820181905281018290526000828460c0840137600060c0848401015260c0601f19601f850116830101905097965050505050505056fe608060405234801561001057600080fd5b5060405161093238038061093283398101604081905261002f9161009e565b6001600160a01b0381166100795760405162461bcd60e51b815260206004820152600d60248201526c24b73b30b634b21037bbb732b960991b604482015260640160405180910390fd5b600080546001600160a01b0319166001600160a01b03929092169190911790556100ce565b6000602082840312156100b057600080fd5b81516001600160a01b03811681146100c757600080fd5b9392505050565b610855806100dd6000396000f3fe608060405234801561001057600080fd5b50600436106100a95760003560e01c80637e222661116100715780637e222661146101725780638da5cb5b1461019d578063917758fe146101b0578063e1fa8e84146101c5578063f2fde38b146101d8578063fb48d6be146101eb57600080fd5b806310832da0146100ae57806327258b22146100e75780634294857f1461011a5780635de28ae01461013d5780636a9385671461015f575b600080fd5b6100d16100bc3660046106f8565b60009081526004602052604090205460ff1690565b6040516100de9190610749565b60405180910390f35b61010a6100f53660046106f8565b60009081526002602052604090205460ff1690565b60405190151581526020016100de565b61010a6101283660046106f8565b60009081526003602052604090205460ff1690565b61015061014b3660046106f8565b6101fe565b6040516100de93929190610757565b61010a61016d3660046106f8565b61024b565b600154610185906001600160a01b031681565b6040516001600160a01b0390911681526020016100de565b600054610185906001600160a01b031681565b6101c36101be36600461077d565b61027e565b005b6101c36101d33660046106f8565b61042c565b6101c36101e63660046107b1565b610532565b6101c36101f93660046107b1565b6105f2565b60008181526002602052604081205460ff16908082801561022e575060008481526003602052604090205460ff16155b60009485526004602052604090942054929460ff90931692915050565b60008181526002602052604081205460ff168015610278575060008281526003602052604090205460ff16155b92915050565b6000546001600160a01b031633146102b15760405162461bcd60e51b81526004016102a8906107e1565b60405180910390fd5b60008281526002602052604090205460ff166103005760405162461bcd60e51b815260206004820152600e60248201526d139bdd081c9959da5cdd195c995960921b60448201526064016102a8565b60008281526003602052604090205460ff16156103515760405162461bcd60e51b815260206004820152600f60248201526e105b1c9958591e481c995d9bdad959608a1b60448201526064016102a8565b600081600a81111561036557610365610711565b036103a85760405162461bcd60e51b815260206004820152601360248201527226bab9ba10383937bb34b232903932b0b9b7b760691b60448201526064016102a8565b60008281526003602090815260408083208054600160ff19918216811790925560049093529220805484939192169083600a8111156103e9576103e9610711565b0217905550817f542e448e88bbdc01179318d788377d398c8166e6b55fc57a777e4f75e8ef31ec8242604051610420929190610804565b60405180910390a25050565b6001546001600160a01b031633146104865760405162461bcd60e51b815260206004820152601960248201527f4e6f7420766572696669636174696f6e20636f6e74726163740000000000000060448201526064016102a8565b60008181526002602052604090205460ff16156104da5760405162461bcd60e51b8152602060048201526012602482015271105b1c9958591e481c9959da5cdd195c995960721b60448201526064016102a8565b60008181526002602052604090819020805460ff191660011790555181907fc8704a622f3eb8c9fc5a2ddf1775b5ea7695359b13dec8111874e266a4d5fbc9906105279042815260200190565b60405180910390a250565b6000546001600160a01b0316331461055c5760405162461bcd60e51b81526004016102a8906107e1565b6001600160a01b0381166105a25760405162461bcd60e51b815260206004820152600d60248201526c24b73b30b634b21037bbb732b960991b60448201526064016102a8565b600080546001600160a01b038381166001600160a01b0319831681178455604051919092169283917f8be0079c531659141344cd1fd0a4f28419497f9722a3daafe3b4186f6b6457e09190a35050565b6000546001600160a01b0316331461061c5760405162461bcd60e51b81526004016102a8906107e1565b6001546001600160a01b0316156106665760405162461bcd60e51b815260206004820152600e60248201526d105b1c9958591e481b1a5b9ad95960921b60448201526064016102a8565b6001600160a01b0381166106ae5760405162461bcd60e51b815260206004820152600f60248201526e496e76616c6964206164647265737360881b60448201526064016102a8565b600180546001600160a01b0319166001600160a01b0383169081179091556040517fcf28f0596d765cb31a13e5edc200ab5b5b89ad072726fd214adf805a5bca913090600090a250565b60006020828403121561070a57600080fd5b5035919050565b634e487b7160e01b600052602160045260246000fd5b600b811061074557634e487b7160e01b600052602160045260246000fd5b9052565b602081016102788284610727565b83151581528215156020820152606081016107756040830184610727565b949350505050565b6000806040838503121561079057600080fd5b823591506020830135600b81106107a657600080fd5b809150509250929050565b6000602082840312156107c357600080fd5b81356001600160a01b03811681146107da57600080fd5b9392505050565b6020808252600990820152682737ba1037bbb732b960b91b604082015260600190565b604081016108128285610727565b826020830152939250505056fea26469706673582212205ed32eb9eab9de05c61e7d4ca6af246ae3a9027f56c4534367507efb13e6135a64736f6c63430008140033608060405234801561001057600080fd5b506040516108b03803806108b083398101604081905261002f916100c6565b6001600160a01b0382166100795760405162461bcd60e51b815260206004820152600d60248201526c24b73b30b634b21037bbb732b960991b604482015260640160405180910390fd5b600080546001600160a01b039384166001600160a01b031991821617909155600180549290931691161790556100f9565b80516001600160a01b03811681146100c157600080fd5b919050565b600080604083850312156100d957600080fd5b6100e2836100aa565b91506100f0602084016100aa565b90509250929050565b6107a8806101086000396000f3fe608060405234801561001057600080fd5b50600436106100575760003560e01c80631626e1a91461005c5780638da5cb5b146100715780638fa9a8ce146100a1578063f0f2740d146100c4578063f2fde38b146100d7575b600080fd5b61006f61006a366004610508565b6100ea565b005b600054610084906001600160a01b031681565b6040516001600160a01b0390911681526020015b60405180910390f35b6100b46100af366004610588565b61033a565b6040519015158152602001610098565b600154610084906001600160a01b031681565b61006f6100e53660046105aa565b61042c565b6000546001600160a01b031633146101355760405162461bcd60e51b81526020600482015260096024820152682737ba1037bbb732b960b91b60448201526064015b60405180910390fd5b60008481526002602081905260409091200154156101875760405162461bcd60e51b815260206004820152600f60248201526e446f63756d656e742065786973747360881b604482015260640161012c565b826101c35760405162461bcd60e51b815260206004820152600c60248201526b092dcecc2d8d2c840d0c2e6d60a31b604482015260640161012c565b6040518060800160405280848152602001336001600160a01b0316815260200142815260200183838080601f01602080910402602001604051908101604052809392919081815260200183838082843760009201829052509390945250508681526002602081815260409283902085518155908501516001820180546001600160a01b0319166001600160a01b039092169190911790559184015190820155606083015190915060038201906102799082610679565b50506001546001600160a01b03161590506102ed5760015460405163387ea3a160e21b8152600481018590526001600160a01b039091169063e1fa8e8490602401600060405180830381600087803b1580156102d457600080fd5b505af11580156102e8573d6000803e3d6000fd5b505050505b336001600160a01b031683857ff2a57d6483e392844eb538038be119b1fcc2570fa8c45d8cb73a7616160c0e1c85854260405161032c93929190610739565b60405180910390a450505050565b600082815260026020818152604080842081516080810183528154815260018201546001600160a01b0316938101939093529283015490820152600382018054849391606084019161038b906105f0565b80601f01602080910402602001604051908101604052809291908181526020018280546103b7906105f0565b80156104045780601f106103d957610100808354040283529160200191610404565b820191906000526020600020905b8154815290600101906020018083116103e757829003601f168201915b505050505081525050905080604001516000141580156104245750805183145b949350505050565b6000546001600160a01b031633146104725760405162461bcd60e51b81526020600482015260096024820152682737ba1037bbb732b960b91b604482015260640161012c565b6001600160a01b0381166104b85760405162461bcd60e51b815260206004820152600d60248201526c24b73b30b634b21037bbb732b960991b604482015260640161012c565b600080546001600160a01b038381166001600160a01b0319831681178455604051919092169283917f8be0079c531659141344cd1fd0a4f28419497f9722a3daafe3b4186f6b6457e09190a35050565b6000806000806060858703121561051e57600080fd5b8435935060208501359250604085013567ffffffffffffffff8082111561054457600080fd5b818701915087601f83011261055857600080fd5b81358181111561056757600080fd5b88602082850101111561057957600080fd5b95989497505060200194505050565b6000806040838503121561059b57600080fd5b50508035926020909101359150565b6000602082840312156105bc57600080fd5b81356001600160a01b03811681146105d357600080fd5b9392505050565b634e487b7160e01b600052604160045260246000fd5b600181811c9082168061060457607f821691505b60208210810361062457634e487b7160e01b600052602260045260246000fd5b50919050565b601f82111561067457600081815260208120601f850160051c810160208610156106515750805b601f850160051c820191505b818110156106705782815560010161065d565b5050505b505050565b815167ffffffffffffffff811115610693576106936105da565b6106a7816106a184546105f0565b8461062a565b602080601f8311600181146106dc57600084156106c45750858301515b600019600386901b1c1916600185901b178555610670565b600085815260208120601f198616915b8281101561070b578886015182559484019460019091019084016106ec565b50858210156107295787850151600019600388901b60f8161c191681555b5050505050600190811b01905550565b604081528260408201528284606083013760006060848301015260006060601f19601f860116830101905082602083015294935050505056fea26469706673582212207395e6a1a3a379231956fc13185051d2a9e4dda7d6ba376c9c4adff4ef7c4b1064736f6c63430008140033608060405234801561001057600080fd5b506040516108af3803806108af83398101604081905261002f916100c6565b6001600160a01b0382166100795760405162461bcd60e51b815260206004820152600d60248201526c24b73b30b634b21037bbb732b960991b604482015260640160405180910390fd5b600080546001600160a01b039384166001600160a01b031991821617909155600180549290931691161790556100f9565b80516001600160a01b03811681146100c157600080fd5b919050565b600080604083850312156100d957600080fd5b6100e2836100aa565b91506100f0602084016100aa565b90509250929050565b6107a7806101086000396000f3fe608060405234801561001057600080fd5b50600436106100575760003560e01c80638da5cb5b1461005c5780639c6c06401461008c578063eec9d2cd146100a1578063f0f2740d146100c4578063f2fde38b146100d7575b600080fd5b60005461006f906001600160a01b031681565b6040516001600160a01b0390911681526020015b60405180910390f35b61009f61009a366004610507565b6100ea565b005b6100b46100af366004610587565b610339565b6040519015158152602001610083565b60015461006f906001600160a01b031681565b61009f6100e53660046105a9565b61042b565b6000546001600160a01b031633146101355760405162461bcd60e51b81526020600482015260096024820152682737ba1037bbb732b960b91b60448201526064015b60405180910390fd5b60008481526002602081905260409091200154156101865760405162461bcd60e51b815260206004820152600e60248201526d446174617365742065786973747360901b604482015260640161012c565b826101c25760405162461bcd60e51b815260206004820152600c60248201526b092dcecc2d8d2c840d0c2e6d60a31b604482015260640161012c565b6040518060800160405280848152602001336001600160a01b0316815260200142815260200183838080601f01602080910402602001604051908101604052809392919081815260200183838082843760009201829052509390945250508681526002602081815260409283902085518155908501516001820180546001600160a01b0319166001600160a01b039092169190911790559184015190820155606083015190915060038201906102789082610678565b50506001546001600160a01b03161590506102ec5760015460405163387ea3a160e21b8152600481018590526001600160a01b039091169063e1fa8e8490602401600060405180830381600087803b1580156102d357600080fd5b505af11580156102e7573d6000803e3d6000fd5b505050505b336001600160a01b031683857f3e3eda2719f0a475cf0e52fbbd3c2e48ae3a34b1978371e6c553f486e2c7f68b85854260405161032b93929190610738565b60405180910390a450505050565b600082815260026020818152604080842081516080810183528154815260018201546001600160a01b0316938101939093529283015490820152600382018054849391606084019161038a906105ef565b80601f01602080910402602001604051908101604052809291908181526020018280546103b6906105ef565b80156104035780601f106103d857610100808354040283529160200191610403565b820191906000526020600020905b8154815290600101906020018083116103e657829003601f168201915b505050505081525050905080604001516000141580156104235750805183145b949350505050565b6000546001600160a01b031633146104715760405162461bcd60e51b81526020600482015260096024820152682737ba1037bbb732b960b91b604482015260640161012c565b6001600160a01b0381166104b75760405162461bcd60e51b815260206004820152600d60248201526c24b73b30b634b21037bbb732b960991b604482015260640161012c565b600080546001600160a01b038381166001600160a01b0319831681178455604051919092169283917f8be0079c531659141344cd1fd0a4f28419497f9722a3daafe3b4186f6b6457e09190a35050565b6000806000806060858703121561051d57600080fd5b8435935060208501359250604085013567ffffffffffffffff8082111561054357600080fd5b818701915087601f83011261055757600080fd5b81358181111561056657600080fd5b88602082850101111561057857600080fd5b95989497505060200194505050565b6000806040838503121561059a57600080fd5b50508035926020909101359150565b6000602082840312156105bb57600080fd5b81356001600160a01b03811681146105d257600080fd5b9392505050565b634e487b7160e01b600052604160045260246000fd5b600181811c9082168061060357607f821691505b60208210810361062357634e487b7160e01b600052602260045260246000fd5b50919050565b601f82111561067357600081815260208120601f850160051c810160208610156106505750805b601f850160051c820191505b8181101561066f5782815560010161065c565b5050505b505050565b815167ffffffffffffffff811115610692576106926105d9565b6106a6816106a084546105ef565b84610629565b602080601f8311600181146106db57600084156106c35750858301515b600019600386901b1c1916600185901b17855561066f565b600085815260208120601f198616915b8281101561070a578886015182559484019460019091019084016106eb565b50858210156107285787850151600019600388901b60f8161c191681555b5050505050600190811b01905550565b604081528260408201528284606083013760006060848301015260006060601f19601f860116830101905082602083015294935050505056fea2646970667358221220ccd32038c45562d66b9df9f4c56a33516831e77d73db6c06633e71d1fff442c964736f6c63430008140033608060405234801561001057600080fd5b506040516108ad3803806108ad83398101604081905261002f916100c6565b6001600160a01b0382166100795760405162461bcd60e51b815260206004820152600d60248201526c24b73b30b634b21037bbb732b960991b604482015260640160405180910390fd5b600080546001600160a01b039384166001600160a01b031991821617909155600180549290931691161790556100f9565b80516001600160a01b03811681146100c157600080fd5b919050565b600080604083850312156100d957600080fd5b6100e2836100aa565b91506100f0602084016100aa565b90509250929050565b6107a5806101086000396000f3fe608060405234801561001057600080fd5b50600436106100575760003560e01c80632391a1f51461005c5780638da5cb5b14610084578063b383ca74146100af578063f0f2740d146100c4578063f2fde38b146100d7575b600080fd5b61006f61006a366004610505565b6100ea565b60405190151581526020015b60405180910390f35b600054610097906001600160a01b031681565b6040516001600160a01b03909116815260200161007b565b6100c26100bd366004610527565b6101dc565b005b600154610097906001600160a01b031681565b6100c26100e53660046105a7565b610429565b600082815260026020818152604080842081516080810183528154815260018201546001600160a01b0316938101939093529283015490820152600382018054849391606084019161013b906105d7565b80601f0160208091040260200160405190810160405280929190818152602001828054610167906105d7565b80156101b45780601f10610189576101008083540402835291602001916101b4565b820191906000526020600020905b81548152906001019060200180831161019757829003601f168201915b505050505081525050905080604001516000141580156101d45750805183145b949350505050565b6000546001600160a01b031633146102275760405162461bcd60e51b81526020600482015260096024820152682737ba1037bbb732b960b91b60448201526064015b60405180910390fd5b60008481526002602081905260409091200154156102765760405162461bcd60e51b815260206004820152600c60248201526b4d656469612065786973747360a01b604482015260640161021e565b826102b25760405162461bcd60e51b815260206004820152600c60248201526b092dcecc2d8d2c840d0c2e6d60a31b604482015260640161021e565b6040518060800160405280848152602001336001600160a01b0316815260200142815260200183838080601f01602080910402602001604051908101604052809392919081815260200183838082843760009201829052509390945250508681526002602081815260409283902085518155908501516001820180546001600160a01b0319166001600160a01b039092169190911790559184015190820155606083015190915060038201906103689082610676565b50506001546001600160a01b03161590506103dc5760015460405163387ea3a160e21b8152600481018590526001600160a01b039091169063e1fa8e8490602401600060405180830381600087803b1580156103c357600080fd5b505af11580156103d7573d6000803e3d6000fd5b505050505b336001600160a01b031683857fddab906cee88a1642e014753f19109d022695a8785560000a38b909e2563079485854260405161041b93929190610736565b60405180910390a450505050565b6000546001600160a01b0316331461046f5760405162461bcd60e51b81526020600482015260096024820152682737ba1037bbb732b960b91b604482015260640161021e565b6001600160a01b0381166104b55760405162461bcd60e51b815260206004820152600d60248201526c24b73b30b634b21037bbb732b960991b604482015260640161021e565b600080546001600160a01b038381166001600160a01b0319831681178455604051919092169283917f8be0079c531659141344cd1fd0a4f28419497f9722a3daafe3b4186f6b6457e09190a35050565b6000806040838503121561051857600080fd5b50508035926020909101359150565b6000806000806060858703121561053d57600080fd5b8435935060208501359250604085013567ffffffffffffffff8082111561056357600080fd5b818701915087601f83011261057757600080fd5b81358181111561058657600080fd5b88602082850101111561059857600080fd5b95989497505060200194505050565b6000602082840312156105b957600080fd5b81356001600160a01b03811681146105d057600080fd5b9392505050565b600181811c908216806105eb57607f821691505b60208210810361060b57634e487b7160e01b600052602260045260246000fd5b50919050565b634e487b7160e01b600052604160045260246000fd5b601f82111561067157600081815260208120601f850160051c8101602086101561064e5750805b601f850160051c820191505b8181101561066d5782815560010161065a565b5050505b505050565b815167ffffffffffffffff81111561069057610690610611565b6106a48161069e84546105d7565b84610627565b602080601f8311600181146106d957600084156106c15750858301515b600019600386901b1c1916600185901b17855561066d565b600085815260208120601f198616915b82811015610708578886015182559484019460019091019084016106e9565b50858210156107265787850151600019600388901b60f8161c191681555b5050505050600190811b01905550565b604081528260408201528284606083013760006060848301015260006060601f19601f860116830101905082602083015294935050505056fea26469706673582212200c27af4f2d627050ed49c72845ed4e98e79f50a05e10e8559da42382b0e36e4a64736f6c63430008140033a26469706673582212207763f1231dbf5838ec74bfcd48747fb67fdfd87b8c802de2279608f590015d0c64736f6c63430008140033",
  "linkReferences": {},
  "deployedLinkReferences": {}
}