{
  "_format": "hh-sol-artifact-1",
  "contractName": "MediaRegistryTemplate",
  "sourceName": "contracts/MediaRegistryTemplate.sol",
  "abi": [
    {
      "inputs": [
        {
          "internalType": "address",
          "name": "initialOwner",
          "type": "address"
        },
        {
          "internalType": "address",
          "name": "_revocationRegistry",
          "type": "address"
        }
      ],
      "stateMutability": "nonpayable",
      "type": "constructor"
    },
    {
      "anonymous": false,
      "inputs": [
        {
          "indexed": true,
          "internalType": "bytes32",
          "name": "mediaId",
          "type": "bytes32"
        },
        {
          "indexed": true,
          "internalType": "bytes32",
          "name": "mediaHash",
          "type": "bytes32"
        },
        {
          "indexed": true,
          "internalType": "address",
          "name": "issuer",
          "type": "address"
        },
        {
          "indexed": false,
          "internalType": "string",
          "name": "uri",
          "type": "string"
        },
        {
          "indexed": false,
          "internalType": "uint256",
          "name": "timestamp",
          "type": "uint256"
        }
      ],
      "name": "MediaRegistered",
      "type": "event"
    },
    {
      "anonymous": false,
      "inputs": [
        {
          "indexed": true,
          "internalType": "address",
          "name": "previousOwner",
          "type": "address"
        },
        {
          "indexed": true,
          "internalType": "address",
          "name": "newOwner",
          "type": "address"
        }
      ],
      "name": "OwnershipTransferred",
      "type": "event"
    },
    {
      "inputs": [],
      "name": "owner",
      "outputs": [
        {
          "internalType": "address",
          "name": "",
          "type": "address"
        }
      ],
      "stateMutability": "view",
      "type": "function"
    },
    {
      "inputs": [
        {
          "internalType": "bytes32",
          "name": "mediaId",
          "type": "bytes32"
        },
        {
          "internalType": "bytes32",
          "name": "mediaHash",
          "type": "bytes32"
        },
        {
          "internalType": "string",
          "name": "uri",
          "type": "string"
        }
      ],
      "name": "registerMedia",
      "outputs": [],
      "stateMutability": "nonpayable",
      "type": "function"
    },
    {
      "inputs": [],
      "name": "revocationRegistry",
      "outputs": [
        {
          "internalType": "address",
          "name": "",
          "type": "address"
        }
      ],
      "stateMutability": "view",
      "type": "function"
    },
    {
      "inputs": [
        {
          "internalType": "address",
          "name": "newOwner",
          "type": "address"
        }
      ],
      "name": "transferOwnership",
      "outputs": [],
      "stateMutability": "nonpayable",
      "type": "function"
    },
    {
      "inputs": [
        {
          "internalType": "bytes32",
          "name": "mediaId",
          "type": "bytes32"
        },
        {
          "internalType": "bytes32",
          "name": "mediaHash",
          "type": "bytes32"
        }
      ],
      "name": "verifyImage",
      "outputs": [
        {
          "internalType": "bool",
          "name": "",
          "type": "bool"
        }
      ],
      "stateMutability": "view",
      "type": "function"
    }
  ],
  "bytecode": "0x608060405234801561001057600080fd5b506040516108ad3803806108ad83398101604081905261002f916100c6565b6001600160a01b0382166100795760405162461bcd60e51b815260206004820152600d60248201526c24b73b30b634b21037bbb732b960991b604482015260640160405180910390fd5b600080546001600160a01b039384166001600160a01b031991821617909155600180549290931691161790556100f9565b80516001600160a01b03811681146100c157600080fd5b919050565b600080604083850312156100d957600080fd5b6100e2836100aa565b91506100f0602084016100aa565b90509250929050565b6107a5806101086000396000f3fe608060405234801561001057600080fd5b50600436106100575760003560e01c80632391a1f51461005c5780638da5cb5b14610084578063b383ca74146100af578063f0f2740d146100c4578063f2fde38b146100d7575b600080fd5b61006f61006a366004610505565b6100ea565b60405190151581526020015b60405180910390f35b600054610097906001600160a01b031681565b6040516001600160a01b03909116815260200161007b565b6100c26100bd366004610527565b6101dc565b005b600154610097906001600160a01b031681565b6100c26100e53660046105a7565b610429565b600082815260026020818152604080842081516080810183528154815260018201546001600160a01b0316938101939093529283015490820152600382018054849391606084019161013b906105d7565b80601f0160208091040260200160405190810160405280929190818152602001828054610167906105d7565b80156101b45780601f10610189576101008083540402835291602001916101b4565b820191906000526020600020905b81548152906001019060200180831161019757829003601f168201915b505050505081525050905080604001516000141580156101d45750805183145b949350505050565b6000546001600160a01b031633146102275760405162461bcd60e51b81526020600482015260096024820152682737ba1037bbb732b960b91b60448201526064015b60405180910390fd5b60008481526002602081905260409091200154156102765760405162461bcd60e51b815260206004820152600c60248201526b4d656469612065786973747360a01b604482015260640161021e565b826102b25760405162461bcd60e51b815260206004820152600c60248201526b092dcecc2d8d2c840d0c2e6d60a31b604482015260640161021e565b6040518060800160405280848152602001336001600160a01b0316815260200142815260200183838080601f01602080910402602001604051908101604052809392919081815260200183838082843760009201829052509390945250508681526002602081815260409283902085518155908501516001820180546001600160a01b0319166001600160a01b039092169190911790559184015190820155606083015190915060038201906103689082610676565b50506001546001600160a01b03161590506103dc5760015460405163387ea3a160e21b8152600481018590526001600160a01b039091169063e1fa8e8490602401600060405180830381600087803b1580156103c357600080fd5b505af11580156103d7573d6000803e3d6000fd5b505050505b336001600160a01b031683857fddab906cee88a1642e014753f19109d022695a8785560000a38b909e2563079485854260405161041b93929190610736565b60405180910390a450505050565b6000546001600160a01b0316331461046f5760405162461bcd60e51b81526020600482015260096024820152682737ba1037bbb732b960b91b604482015260640161021e565b6001600160a01b0381166104b55760405162461bcd60e51b815260206004820152600d60248201526c24b73b30b634b21037bbb732b960991b604482015260640161021e565b600080546001600160a01b038381166001600160a01b0319831681178455604051919092169283917f8be0079c531659141344cd1fd0a4f28419497f9722a3daafe3b4186f6b6457e09190a35050565b6000806040838503121561051857600080fd5b50508035926020909101359150565b6000806000806060858703121561053d57600080fd5b8435935060208501359250604085013567ffffffffffffffff8082111561056357600080fd5b818701915087601f83011261057757600080fd5b81358181111561058657600080fd5b88602082850101111561059857600080fd5b95989497505060200194505050565b6000602082840312156105b957600080fd5b81356001600160a01b03811681146105d057600080fd5b9392505050565b600181811c908216806105eb57607f821691505b60208210810361060b57634e487b7160e01b600052602260045260246000fd5b50919050565b634e487b7160e01b600052604160045260246000fd5b601f82111561067157600081815260208120601f850160051c8101602086101561064e5750805b601f850160051c820191505b8181101561066d5782815560010161065a565b5050505b505050565b815167ffffffffffffffff81111561069057610690610611565b6106a48161069e84546105d7565b84610627565b602080601f8311600181146106d957600084156106c15750858301515b600019600386901b1c1916600185901b17855561066d565b600085815260208120601f198616915b82811015610708578886015182559484019460019091019084016106e9565b50858210156107265787850151600019600388901b60f8161c191681555b5050505050600190811b01905550565b604081528260408201528284606083013760006060848301015260006060601f19601f860116830101905082602083015294935050505056fea26469706673582212200c27af4f2d627050ed49c72845ed4e98e79f50a05e10e8559da42382b0e36e4a64736f6c63430008140033",
  "linkReferences": {},
  "deployedLinkReferences": {}
}