{"contracts/DatasetRegistryTemplate.sol":{"DatasetRegistryTemplate":{"abi":[{"inputs":[{"internalType":"address","name":"initialOwner","type":"address"},{"internalType":"address","name":"_revocationRegistry","type":"address"}],"stateMutability":"nonpayable","type":"constructor"},{"anonymous":false,"inputs":[{"indexed":true,"internalType":"bytes32","name":"datasetId","type":"bytes32"},{"indexed":true,"internalType":"bytes32","name":"dataHash","type":"bytes32"},{"indexed":true,"internalType":"address","name":"issuer","type":"address"},{"indexed":false,"internalType":"string","name":"uri","type":"string"},{"indexed":false,"internalType":"uint256","name":"timestamp","type":"uint256"}],"name":"DatasetRegistered","type":"event"},{"anonymous":false,"inputs":[{"indexed":true,"internalType":"address","name":"previousOwner","type":"address"},{"indexed":true,"internalType":"address","name":"newOwner","type":"address"}],"name":"OwnershipTransferred","type":"event"},{"inputs":[],"name":"owner","outputs":[{"internalType":"address","name":"","type":"address"}],"stateMutability":"view","type":"function"},{"inputs":[{"internalType":"bytes32","name":"datasetId","type":"bytes32"},{"internalType":"bytes32","name":"dataHash","type":"bytes32"},{"internalType":"string","name":"uri","type":"string"}],"name":"registerDataset","outputs":[],"stateMutability":"nonpayable","type":"function"},{"inputs":[],"name":"revocationRegistry","outputs":[{"internalType":"address","name":"","type":"address"}],"stateMutability":"view","type":"function"},{"inputs":[{"internalType":"address","name":"newOwner","type":"address"}],"name":"transferOwnership","outputs":[],"stateMutability":"nonpayable","type":"function"},{"inputs":[{"internalType":"bytes32","name":"datasetId","type":"bytes32"},{"internalType":"bytes32","name":"dataHash","type":"bytes32"}],"name":"verifyDataset","outputs":[{"internalType":"bool","name":"","type":"bool"}],"stateMutability":"view","type":"function"}],"evm":{"bytecode":{"linkReferences":{},"object":"608060405234801561001057600080fd5b506040516108af3803806108af83398101604081905261002f916100c6565b6001600160a01b0382166100795760405162461bcd60e51b815260206004820152600d60248201526c24b73b30b634b21037bbb732b960991b604482015260640160405180910390fd5b600080546001600160a01b039384166001600160a01b031991821617909155600180549290931691161790556100f9565b80516001600160a01b03811681146100c157600080fd5b919050565b600080604083850312156100d957600080fd5b6100e2836100aa565b91506100f0602084016100aa565b90509250929050565b6107a7806101086000396000f3fe608060405234801561001057600080fd5b50600436106100575760003560e01c80638da5cb5b1461005c5780639c6c06401461008c578063eec9d2cd146100a1578063f0f2740d146100c4578063f2fde38b146100d7575b600080fd5b60005461006f906001600160a01b031681565b6040516001600160a01b0390911681526020015b60405180910390f35b61009f61009a366004610507565b6100ea565b005b6100b46100af366004610587565b610339565b6040519015158152602001610083565b60015461006f906001600160a01b031681565b61009f6100e53660046105a9565b61042b565b6000546001600160a01b031633146101355760405162461bcd60e51b81526020600482015260096024820152682737ba1037bbb732b960b91b60448201526064015b60405180910390fd5b60008481526002602081905260409091200154156101865760405162461bcd60e51b815260206004820152600e60248201526d446174617365742065786973747360901b604482015260640161012c565b826101c25760405162461bcd60e51b815260206004820152600c60248201526b092dcecc2d8d2c840d0c2e6d60a31b604482015260640161012c565b6040518060800160405280848152602001336001600160a01b0316815260200142815260200183838080601f01602080910402602001604051908101604052809392919081815260200183838082843760009201829052509390945250508681526002602081815260409283902085518155908501516001820180546001600160a01b0319166001600160a01b039092169190911790559184015190820155606083015190915060038201906102789082610678565b50506001546001600160a01b03161590506102ec5760015460405163387ea3a160e21b8152600481018590526001600160a01b039091169063e1fa8e8490602401600060405180830381600087803b1580156102d357600080fd5b505af11580156102e7573d6000803e3d6000fd5b505050505b336001600160a01b031683857f3e3eda2719f0a475cf0e52fbbd3c2e48ae3a34b1978371e6c553f486e2c7f68b85854260405161032b93929190610738565b60405180910390a450505050565b600082815260026020818152604080842081516080810183528154815260018201546001600160a01b0316938101939093529283015490820152600382018054849391606084019161038a906105ef565b80601f01602080910402602001604051908101604052809291908181526020018280546103b6906105ef565b80156104035780601f106103d857610100808354040283529160200191610403565b820191906000526020600020905b8154815290600101906020018083116103e657829003601f168201915b505050505081525050905080604001516000141580156104235750805183145b949350505050565b6000546001600160a01b031633146104715760405162461bcd60e51b81526020600482015260096024820152682737ba1037bbb732b960b91b604482015260640161012c565b6001600160a01b0381166104b75760405162461bcd60e51b815260206004820152600d60248201526c24b73b30b634b21037bbb732b960991b604482015260640161012c565b600080546001600160a01b038381166001600160a01b0319831681178455604051919092169283917f8be0079c531659141344cd1fd0a4f28419497f9722a3daafe3b4186f6b6457e09190a35050565b6000806000806060858703121561051d57600080fd5b8435935060208501359250604085013567ffffffffffffffff8082111561054357600080fd5b818701915087601f83011261055757600080fd5b81358181111561056657600080fd5b88602082850101111561057857600080fd5b95989497505060200194505050565b6000806040838503121561059a57600080fd5b50508035926020909101359150565b6000602082840312156105bb57600080fd5b81356001600160a01b03811681146105d257600080fd5b9392505050565b634e487b7160e01b600052604160045260246000fd5b600181811c9082168061060357607f821691505b60208210810361062357634e487b7160e01b600052602260045260246000fd5b50919050565b601f82111561067357600081815260208120601f850160051c810160208610156106505750805b601f850160051c820191505b8181101561066f5782815560010161065c565b5050505b505050565b815167ffffffffffffffff811115610692576106926105d9565b6106a6816106a084546105ef565b84610629565b602080601f8311600181146106db57600084156106c35750858301515b600019600386901b1c1916600185901b17855561066f565b600085815260208120601f198616915b8281101561070a578886015182559484019460019091019084016106eb565b50858210156107285787850151600019600388901b60f8161c191681555b5050505050600190811b01905550565b604081528260408201528284606083013760006060848301015260006060601f19601f860116830101905082602083015294935050505056fea2646970667358221220ccd32038c45562d66b9df9f4c56a33516831e77d73db6c06633e71d1fff442c964736f6c63430008140033","opcodes":"PUSH1 0x80 PUSH1 0x40 MSTORE CALLVALUE DUP1 ISZERO PUSH2 0x10 JUMPI PUSH1 0x0 DUP1 REVERT JUMPDEST POP PUSH1 0x40 MLOAD PUSH2 0x8AF CODESIZE SUB DUP1 PUSH2 0x8AF DUP4 CODECOPY DUP2 ADD PUSH1 0x40 DUP2 SWAP1 MSTORE PUSH2 0x2F SWAP2 PUSH2 0xC6 JUMP JUMPDEST PUSH1 0x1 PUSH1 0x1 PUSH1 0xA0 SHL SUB DUP3 AND PUSH2 0x79 JUMPI PUSH1 0x40 MLOAD PUSH3 0x461BCD PUSH1 0xE5 SHL DUP2 MSTORE PUSH1 0x20 PUSH1 0x4 DUP3 ADD MSTORE PUSH1 0xD PUSH1 0x24 DUP3 ADD MSTORE PUSH13 0x24B73B30B634B21037BBB732B9 PUSH1 0x99 SHL PUSH1 0x44 DUP3 ADD MSTORE PUSH1 0x64 ADD PUSH1 0x40 MLOAD DUP1 SWAP2 SUB SWAP1 REVERT JUMPDEST PUSH1 0x0 DUP1 SLOAD PUSH1 0x1 PUSH1 0x1 PUSH1 0xA0 SHL SUB SWAP4 DUP5 AND PUSH1 0x1 PUSH1 0x1 PUSH1 0xA0 SHL SUB NOT SWAP2 DUP3 AND OR SWAP1 SWAP2 SSTORE PUSH1 0x1 DUP1 SLOAD SWAP3 SWAP1 SWAP4 AND SWAP2 AND OR SWAP1 SSTORE PUSH2 0xF9 JUMP JUMPDEST DUP1 MLOAD PUSH1 0x1 PUSH1 0x1 PUSH1 0xA0 SHL SUB DUP2 AND DUP2 EQ PUSH2 0xC1 JUMPI PUSH1 0x0 DUP1 REVERT JUMPDEST SWAP2 SWAP1 POP JUMP JUMPDEST PUSH1 0x0 DUP1 PUSH1 0x40 DUP4 DUP6 SUB SLT ISZERO PUSH2 0xD9 JUMPI PUSH1 0x0 DUP1 REVERT JUMPDEST PUSH2 0xE2 DUP4 PUSH2 0xAA JUMP JUMPDEST SWAP2 POP PUSH2 0xF0 PUSH1 0x20 DUP5 ADD PUSH2 0xAA JUMP JUMPDEST SWAP1 POP SWAP3 POP SWAP3 SWAP1 POP JUMP JUMPDEST PUSH2 0x7A7 DUP1 PUSH2 0x108 PUSH1 0x0 CODECOPY PUSH1 0x0 RETURN INVALID PUSH1 0x80 PUSH1 0x40 MSTORE CALLVALUE DUP1 ISZERO PUSH2 0x10 JUMPI PUSH1 0x0 DUP1 REVERT JUMPDEST POP PUSH1 0x4 CALLDATASIZE LT PUSH2 0x57 JUMPI PUSH1 0x0 CALLDATALOAD PUSH1 0xE0 SHR DUP1 PUSH4 0x8DA5CB5B EQ PUSH2 0x5C JUMPI DUP1 PUSH4 0x9C6C0640 EQ PUSH2 0x8C JUMPI DUP1 PUSH4 0xEEC9D2CD EQ PUSH2 0xA1 JUMPI DUP1 PUSH4 0xF0F2740D EQ PUSH2 0xC4 JUMPI DUP1 PUSH4 0xF2FDE38B EQ PUSH2 0xD7 JUMPI JUMPDEST PUSH1 0x0 DUP1 REVERT JUMPDEST PUSH1 0x0 SLOAD PUSH2 0x6F SWAP1 PUSH1 0x1 PUSH1 0x1 PUSH1 0xA0 SHL SUB AND DUP2 JUMP JUMPDEST PUSH1 0x40 MLOAD PUSH1 0x1 PUSH1 0x1 PUSH1 0xA0 SHL SUB SWAP1 SWAP2 AND DUP2 MSTORE PUSH1 0x20 ADD JUMPDEST PUSH1 0x40 MLOAD DUP1 SWAP2 SUB SWAP1 RETURN JUMPDEST PUSH2 0x9F PUSH2 0x9A CALLDATASIZE PUSH1 0x4 PUSH2 0x507 JUMP JUMPDEST PUSH2 0xEA JUMP JUMPDEST STOP JUMPDEST PUSH2 0xB4 PUSH2 0xAF CALLDATASIZE PUSH1 0x4 PUSH2 0x587 JUMP JUMPDEST PUSH2 0x339 JUMP JUMPDEST PUSH1 0x40 MLOAD SWAP1 ISZERO ISZERO DUP2 MSTORE PUSH1 0x20 ADD PUSH2 0x83 JUMP JUMPDEST PUSH1 0x1 SLOAD PUSH2 0x6F SWAP1 PUSH1 0x1 PUSH1 0x1 PUSH1 0xA0 SHL SUB AND DUP2 JUMP JUMPDEST PUSH2 0x9F PUSH2 0xE5 CALLDATASIZE PUSH1 0x4 PUSH2 0x5A9 JUMP JUMPDEST PUSH2 0x42B JUMP JUMPDEST PUSH1 0x0 SLOAD PUSH1 0x1 PUSH1 0x1 PUSH1 0xA0 SHL SUB AND CALLER EQ PUSH2 0x135 JUMPI PUSH1 0x40 MLOAD PUSH3 0x461BCD PUSH1 0xE5 SHL DUP2 MSTORE PUSH1 0x20 PUSH1 0x4 DUP3 ADD MSTORE PUSH1 0x9 PUSH1 0x24 DUP3 ADD MSTORE PUSH9 0x2737BA1037BBB732B9 PUSH1 0xB9 SHL PUSH1 0x44 DUP3 ADD MSTORE PUSH1 0x64 ADD JUMPDEST PUSH1 0x40 MLOAD DUP1 SWAP2 SUB SWAP1 REVERT JUMPDEST PUSH1 0x0 DUP5 DUP2 MSTORE PUSH1 0x2 PUSH1 0x20 DUP2 SWAP1 MSTORE PUSH1 0x40 SWAP1 SWAP2 KECCAK256 ADD SLOAD ISZERO PUSH2 0x186 JUMPI PUSH1 0x40 MLOAD PUSH3 0x461BCD PUSH1 0xE5 SHL DUP2 MSTORE PUSH1 0x20 PUSH1 0x4 DUP3 ADD MSTORE PUSH1 0xE PUSH1 0x24 DUP3 ADD MSTORE PUSH14 0x4461746173657420657869737473 PUSH1 0x90 SHL PUSH1 0x44 DUP3 ADD MSTORE PUSH1 0x64 ADD PUSH2 0x12C JUMP JUMPDEST DUP3 PUSH2 0x1C2 JUMPI PUSH1 0x40 MLOAD PUSH3 0x461BCD PUSH1 0xE5 SHL DUP2 MSTORE PUSH1 0x20 PUSH1 0x4 DUP3 ADD MSTORE PUSH1 0xC PUSH1 0x24 DUP3 ADD MSTORE PUSH12 0x92DCECC2D8D2C840D0C2E6D PUSH1 0xA3 SHL PUSH1 0x44 DUP3 ADD MSTORE PUSH1 0x64 ADD PUSH2 0x12C JUMP JUMPDEST PUSH1 0x40 MLOAD DUP1 PUSH1 0x80 ADD PUSH1 0x40 MSTORE DUP1 DUP5 DUP2 MSTORE PUSH1 0x20 ADD CALLER PUSH1 0x1 PUSH1 0x1 PUSH1 0xA0 SHL SUB AND DUP2 MSTORE PUSH1 0x20 ADD TIMESTAMP DUP2 MSTORE PUSH1 0x20 ADD DUP4 DUP4 DUP1 DUP1 PUSH1 0x1F ADD PUSH1 0x20 DUP1 SWAP2 DIV MUL PUSH1 0x20 ADD PUSH1 0x40 MLOAD SWAP1 DUP2 ADD PUSH1 0x40 MSTORE DUP1 SWAP4 SWAP3 SWAP2 SWAP1 DUP2 DUP2 MSTORE PUSH1 0x20 ADD DUP4 DUP4 DUP1 DUP3 DUP5 CALLDATACOPY PUSH1 0x0 SWAP3 ADD DUP3 SWAP1 MSTORE POP SWAP4 SWAP1 SWAP5 MSTORE POP POP DUP7 DUP2 MSTORE PUSH1 0x2 PUSH1 0x20 DUP2 DUP2 MSTORE PUSH1 0x40 SWAP3 DUP4 SWAP1 KECCAK256 DUP6 MLOAD DUP2 SSTORE SWAP1 DUP6 ADD MLOAD PUSH1 0x1 DUP3 ADD DUP1 SLOAD PUSH1 0x1 PUSH1 0x1 PUSH1 0xA0 SHL SUB NOT AND PUSH1 0x1 PUSH1 0x1 PUSH1 0xA0 SHL SUB SWAP1 SWAP3 AND SWAP2 SWAP1 SWAP2 OR SWAP1 SSTORE SWAP2 DUP5 ADD MLOAD SWAP1 DUP3 ADD SSTORE PUSH1 0x60 DUP4 ADD MLOAD SWAP1 SWAP2 POP PUSH1 0x3 DUP3 ADD SWAP1 PUSH2 0x278 SWAP1 DUP3 PUSH2 0x678 JUMP JUMPDEST POP POP PUSH1 0x1 SLOAD PUSH1 0x1 PUSH1 0x1 PUSH1 0xA0 SHL SUB AND ISZERO SWAP1 POP PUSH2 0x2EC JUMPI PUSH1 0x1 SLOAD PUSH1 0x40 MLOAD PUSH4 0x387EA3A1 PUSH1 0xE2 SHL DUP2 MSTORE PUSH1 0x4 DUP2 ADD DUP6 SWAP1 MSTORE PUSH1 0x1 PUSH1 0x1 PUSH1 0xA0 SHL SUB SWAP1 SWAP2 AND SWAP1 PUSH4 0xE1FA8E84 SWAP1 PUSH1 0x24 ADD PUSH1 0x0 PUSH1 0x40 MLOAD DUP1 DUP4 SUB DUP2 PUSH1 0x0 DUP8 DUP1 EXTCODESIZE ISZERO DUP1 ISZERO PUSH2 0x2D3 JUMPI PUSH1 0x0 DUP1 REVERT JUMPDEST POP GAS CALL ISZERO DUP1 ISZERO PUSH2 0x2E7 JUMPI RETURNDATASIZE PUSH1 0x0 DUP1 RETURNDATACOPY RETURNDATASIZE PUSH1 0x0 REVERT JUMPDEST POP POP POP POP JUMPDEST CALLER PUSH1 0x1 PUSH1 0x1 PUSH1 0xA0 SHL SUB AND DUP4 DUP6 PUSH32 0x3E3EDA2719F0A475CF0E52FBBD3C2E48AE3A34B1978371E6C553F486E2C7F68B DUP6 DUP6 TIMESTAMP PUSH1 0x40 MLOAD PUSH2 0x32B SWAP4 SWAP3 SWAP2 SWAP1 PUSH2 0x738 JUMP JUMPDEST PUSH1 0x40 MLOAD DUP1 SWAP2 SUB SWAP1 LOG4 POP POP POP POP JUMP JUMPDEST PUSH1 0x0 DUP3 DUP2 MSTORE PUSH1 0x2 PUSH1 0x20 DUP2 DUP2 MSTORE PUSH1 0x40 DUP1 DUP5 KECCAK256 DUP2 MLOAD PUSH1 0x80 DUP2 ADD DUP4 MSTORE DUP2 SLOAD DUP2 MSTORE PUSH1 0x1 DUP3 ADD SLOAD PUSH1 0x1 PUSH1 0x1 PUSH1 0xA0 SHL SUB AND SWAP4 DUP2 ADD SWAP4 SWAP1 SWAP4 MSTORE SWAP3 DUP4 ADD SLOAD SWAP1 DUP3 ADD MSTORE PUSH1 0x3 DUP3 ADD DUP1 SLOAD DUP5 SWAP4 SWAP2 PUSH1 0x60 DUP5 ADD SWAP2 PUSH2 0x38A SWAP1 PUSH2 0x5EF JUMP JUMPDEST DUP1 PUSH1 0x1F ADD PUSH1 0x20 DUP1 SWAP2 DIV MUL PUSH1 0x20 ADD PUSH1 0x40 MLOAD SWAP1 DUP2 ADD PUSH1 0x40 MSTORE DUP1 SWAP3 SWAP2 SWAP1 DUP2 DUP2 MSTORE PUSH1 0x20 ADD DUP3 DUP1 SLOAD PUSH2 0x3B6 SWAP1 PUSH2 0x5EF JUMP JUMPDEST DUP1 ISZERO PUSH2 0x403 JUMPI DUP1 PUSH1 0x1F LT PUSH2 0x3D8 JUMPI PUSH2 0x100 DUP1 DUP4 SLOAD DIV MUL DUP4 MSTORE SWAP2 PUSH1 0x20 ADD SWAP2 PUSH2 0x403 JUMP JUMPDEST DUP3 ADD SWAP2 SWAP1 PUSH1 0x0 MSTORE PUSH1 0x20 PUSH1 0x0 KECCAK256 SWAP1 JUMPDEST DUP2 SLOAD DUP2 MSTORE SWAP1 PUSH1 0x1 ADD SWAP1 PUSH1 0x20 ADD DUP1 DUP4 GT PUSH2 0x3E6 JUMPI DUP3 SWAP1 SUB PUSH1 0x1F AND DUP3 ADD SWAP2 JUMPDEST POP POP POP POP POP DUP2 MSTORE POP POP SWAP1 POP DUP1 PUSH1 0x40 ADD MLOAD PUSH1 0x0 EQ ISZERO DUP1 ISZERO PUSH2 0x423 JUMPI POP DUP1 MLOAD DUP4 EQ JUMPDEST SWAP5 SWAP4 POP POP POP POP JUMP JUMPDEST PUSH1 0x0 SLOAD PUSH1 0x1 PUSH1 0x1 PUSH1 0xA0 SHL SUB AND CALLER EQ PUSH2 0x471 JUMPI PUSH1 0x40 MLOAD PUSH3 0x461BCD PUSH1 0xE5 SHL DUP2 MSTORE PUSH1 0x20 PUSH1 0x4 DUP3 ADD MSTORE PUSH1 0x9 PUSH1 0x24 DUP3 ADD MSTORE PUSH9 0x2737BA1037BBB732B9 PUSH1 0xB9 SHL PUSH1 0x44 DUP3 ADD MSTORE PUSH1 0x64 ADD PUSH2 0x12C JUMP JUMPDEST PUSH1 0x1 PUSH1 0x1 PUSH1 0xA0 SHL SUB DUP2 AND PUSH2 0x4B7 JUMPI PUSH1 0x40 MLOAD PUSH3 0x461BCD PUSH1 0xE5 SHL DUP2 MSTORE PUSH1 0x20 PUSH1 0x4 DUP3 ADD MSTORE PUSH1 0xD PUSH1 0x24 DUP3 ADD MSTORE PUSH13 0x24B73B30B634B21037BBB732B9 PUSH1 0x99 SHL PUSH1 0x44 DUP3 ADD MSTORE PUSH1 0x64 ADD PUSH2 0x12C JUMP JUMPDEST PUSH1 0x0 DUP1 SLOAD PUSH1 0x1 PUSH1 0x1 PUSH1 0xA0 SHL SUB DUP4 DUP2 AND PUSH1 0x1 PUSH1 0x1 PUSH1 0xA0 SHL SUB NOT DUP4 AND DUP2 OR DUP5 SSTORE PUSH1 0x40 MLOAD SWAP2 SWAP1 SWAP3 AND SWAP3 DUP4 SWAP2 PUSH32 0x8BE0079C531659141344CD1FD0A4F28419497F9722A3DAAFE3B4186F6B6457E0 SWAP2 SWAP1 LOG3 POP POP JUMP JUMPDEST PUSH1 0x0 DUP1 PUSH1 0x0 DUP1 PUSH1 0x60 DUP6 DUP8 SUB SLT ISZERO PUSH2 0x51D JUMPI PUSH1 0x0 DUP1 REVERT JUMPDEST DUP5 CALLDATALOAD SWAP4 POP PUSH1 0x20 DUP6 ADD CALLDATALOAD SWAP3 POP PUSH1 0x40 DUP6 ADD CALLDATALOAD PUSH8 0xFFFFFFFFFFFFFFFF DUP1 DUP3 GT ISZERO PUSH2 0x543 JUMPI PUSH1 0x0 DUP1 REVERT JUMPDEST DUP2 DUP8 ADD SWAP2 POP DUP8 PUSH1 0x1F DUP4 ADD SLT PUSH2 0x557 JUMPI PUSH1 0x0 DUP1 REVERT JUMPDEST DUP2 CALLDATALOAD DUP2 DUP2 GT ISZERO PUSH2 0x566 JUMPI PUSH1 0x0 DUP1 REVERT JUMPDEST DUP9 PUSH1 0x20 DUP3 DUP6 ADD ADD GT ISZERO PUSH2 0x578 JUMPI PUSH1 0x0 DUP1 REVERT JUMPDEST SWAP6 SWAP9 SWAP5 SWAP8 POP POP PUSH1 0x20 ADD SWAP5 POP POP POP JUMP JUMPDEST PUSH1 0x0 DUP1 PUSH1 0x40 DUP4 DUP6 SUB SLT ISZERO PUSH2 0x59A JUMPI PUSH1 0x0 DUP1 REVERT JUMPDEST POP POP DUP1 CALLDATALOAD SWAP3 PUSH1 0x20 SWAP1 SWAP2 ADD CALLDATALOAD SWAP2 POP JUMP JUMPDEST PUSH1 0x0 PUSH1 0x20 DUP3 DUP5 SUB SLT ISZERO PUSH2 0x5BB JUMPI PUSH1 0x0 DUP1 REVERT JUMPDEST DUP2 CALLDATALOAD PUSH1 0x1 PUSH1 0x1 PUSH1 0xA0 SHL SUB DUP2 AND DUP2 EQ PUSH2 0x5D2 JUMPI PUSH1 0x0 DUP1 REVERT JUMPDEST SWAP4 SWAP3 POP POP POP JUMP JUMPDEST PUSH4 0x4E487B71 PUSH1 0xE0 SHL PUSH1 0x0 MSTORE PUSH1 0x41 PUSH1 0x4 MSTORE PUSH1 0x24 PUSH1 0x0 REVERT JUMPDEST PUSH1 0x1 DUP2 DUP2 SHR SWAP1 DUP3 AND DUP1 PUSH2 0x603 JUMPI PUSH1 0x7F DUP3 AND SWAP2 POP JUMPDEST PUSH1 0x20 DUP3 LT DUP2 SUB PUSH2 0x623 JUMPI PUSH4 0x4E487B71 PUSH1 0xE0 SHL PUSH1 0x0 MSTORE PUSH1 0x22 PUSH1 0x4 MSTORE PUSH1 0x24 PUSH1 0x0 REVERT JUMPDEST POP SWAP2 SWAP1 POP JUMP JUMPDEST PUSH1 0x1F DUP3 GT ISZERO PUSH2 0x673 JUMPI PUSH1 0x0 DUP2 DUP2 MSTORE PUSH1 0x20 DUP2 KECCAK256 PUSH1 0x1F DUP6 ADD PUSH1 0x5 SHR DUP2 ADD PUSH1 0x20 DUP7 LT ISZERO PUSH2 0x650 JUMPI POP DUP1 JUMPDEST PUSH1 0x1F DUP6 ADD PUSH1 0x5 SHR DUP3 ADD SWAP2 POP JUMPDEST DUP2 DUP2 LT ISZERO PUSH2 0x66F JUMPI DUP3 DUP2 SSTORE PUSH1 0x1 ADD PUSH2 0x65C JUMP JUMPDEST POP POP POP JUMPDEST POP POP POP JUMP JUMPDEST DUP2 MLOAD PUSH8 0xFFFFFFFFFFFFFFFF DUP2 GT ISZERO PUSH2 0x692 JUMPI PUSH2 0x692 PUSH2 0x5D9 JUMP JUMPDEST PUSH2 0x6A6 DUP2 PUSH2 0x6A0 DUP5 SLOAD PUSH2 0x5EF JUMP JUMPDEST DUP5 PUSH2 0x629 JUMP JUMPDEST PUSH1 0x20 DUP1 PUSH1 0x1F DUP4 GT PUSH1 0x1 DUP2 EQ PUSH2 0x6DB JUMPI PUSH1 0x0 DUP5 ISZERO PUSH2 0x6C3 JUMPI POP DUP6 DUP4 ADD MLOAD JUMPDEST PUSH1 0x0 NOT PUSH1 0x3 DUP7 SWAP1 SHL SHR NOT AND PUSH1 0x1 DUP6 SWAP1 SHL OR DUP6 SSTORE PUSH2 0x66F JUMP JUMPDEST PUSH1 0x0 DUP6 DUP2 MSTORE PUSH1 0x20 DUP2 KECCAK256 PUSH1 0x1F NOT DUP7 AND SWAP2 JUMPDEST DUP3 DUP2 LT ISZERO PUSH2 0x70A JUMPI DUP9 DUP7 ADD MLOAD DUP3 SSTORE SWAP5 DUP5 ADD SWAP5 PUSH1 0x1 SWAP1 SWAP2 ADD SWAP1 DUP5 ADD PUSH2 0x6EB JUMP JUMPDEST POP DUP6 DUP3 LT ISZERO PUSH2 0x728 JUMPI DUP8 DUP6 ADD MLOAD PUSH1 0x0 NOT PUSH1 0x3 DUP9 SWAP1 SHL PUSH1 0xF8 AND SHR NOT AND DUP2 SSTORE JUMPDEST POP POP POP POP POP PUSH1 0x1 SWAP1 DUP2 SHL ADD SWAP1 SSTORE POP JUMP JUMPDEST PUSH1 0x40 DUP2 MSTORE DUP3 PUSH1 0x40 DUP3 ADD MSTORE DUP3 DUP5 PUSH1 0x60 DUP4 ADD CALLDATACOPY PUSH1 0x0 PUSH1 0x60 DUP5 DUP4 ADD ADD MSTORE PUSH1 0x0 PUSH1 0x60 PUSH1 0x1F NOT PUSH1 0x1F DUP7 ADD AND DUP4 ADD ADD SWAP1 POP DUP3 PUSH1 0x20 DUP4 ADD MSTORE SWAP5 SWAP4 POP POP POP POP JUMP INVALID LOG2 PUSH5 0x6970667358 0x22 SLT KECCAK256 0xCC 0xD3 KECCAK256 CODESIZE 0xC4 SSTORE PUSH3 0xD66B9D 0xF9 DELEGATECALL 0xC5 PUSH11 0x33516831E77D73DB6C0663 RETURNDATACOPY PUSH18 0xD1FFF442C964736F6C634300081400330000 "},"methodIdentifiers":{"owner()":"8da5cb5b","registerDataset(bytes32,bytes32,string)":"9c6c0640","revocationRegistry()":"f0f2740d","transferOwnership(address)":"f2fde38b","verifyDataset(bytes32,bytes32)":"eec9d2cd"}}}}}