{"contracts/RevocationRegistry.sol":{"RevocationRegistry":{"abi":[{"inputs":[{"internalType":"address","name":"initialOwner","type":"address"}],"stateMutability":"nonpayable","type":"constructor"},{"anonymous":false,"inputs":[{"indexed":true,"internalType":"address","name":"previousOwner","type":"address"},{"indexed":true,"internalType":"address","name":"newOwner","type":"address"}],"name":"OwnershipTransferred","type":"event"},{"anonymous":false,"inputs":[{"indexed":true,"internalType":"bytes32","name":"hash","type":"bytes32"},{"indexed":false,"internalType":"uint256","name":"timestamp","type":"uint256"}],"name":"Registered","type":"event"},{"anonymous":false,"inputs":[{"indexed":true,"internalType":"bytes32","name":"hash","type":"bytes32"},{"indexed":false,"internalType":"enum RevocationRegistry.RevocationReason","name":"reason","type":"uint8"},{"indexed":false,"internalType":"uint256","name":"timestamp","type":"uint256"}],"name":"Revoked","type":"event"},{"anonymous":false,"inputs":[{"indexed":true,"internalType":"address","name":"contractAddress","type":"address"}],"name":"VerificationContractSet","type":"event"},{"inputs":[{"internalType":"bytes32","name":"hash","type":"bytes32"}],"name":"getRevocationReason","outputs":[{"internalType":"enum RevocationRegistry.RevocationReason","name":"","type":"uint8"}],"stateMutability":"view","type":"function"},{"inputs":[{"internalType":"bytes32","name":"hash","type":"bytes32"}],"name":"getStatus","outputs":[{"internalType":"bool","name":"exists","type":"bool"},{"internalType":"bool","name":"valid","type":"bool"},{"internalType":"enum RevocationRegistry.RevocationReason","name":"reason","type":"uint8"}],"stateMutability":"view","type":"function"},{"inputs":[{"internalType":"bytes32","name":"hash","type":"bytes32"}],"name":"isRegistered","outputs":[{"internalType":"bool","name":"","type":"bool"}],"stateMutability":"view","type":"function"},{"inputs":[{"internalType":"bytes32","name":"hash","type":"bytes32"}],"name":"isRevoked","outputs":[{"internalType":"bool","name":"","type":"bool"}],"stateMutability":"view","type":"function"},{"inputs":[{"internalType":"bytes32","name":"hash","type":"bytes32"}],"name":"isValid","outputs":[{"internalType":"bool","name":"","type":"bool"}],"stateMutability":"view","type":"function"},{"inputs":[],"name":"owner","outputs":[{"internalType":"address","name":"","type":"address"}],"stateMutability":"view","type":"function"},{"inputs":[{"internalType":"bytes32","name":"hash","type":"bytes32"}],"name":"register","outputs":[],"stateMutability":"nonpayable","type":"function"},{"inputs":[{"internalType":"bytes32","name":"hash","type":"bytes32"},{"internalType":"enum RevocationRegistry.RevocationReason","name":"reason","type":"uint8"}],"name":"revoke","outputs":[],"stateMutability":"nonpayable","type":"function"},{"inputs":[{"internalType":"address","name":"_verificationContract","type":"address"}],"name":"setVerificationContract","outputs":[],"stateMutability":"nonpayable","type":"function"},{"inputs":[{"internalType":"address","name":"newOwner","type":"address"}],"name":"transferOwnership","outputs":[],"stateMutability":"nonpayable","type":"function"},{"inputs":[],"name":"verificationContract","outputs":[{"internalType":"address","name":"","type":"address"}],"stateMutability":"view","type":"function"}],"evm":{"bytecode":{"linkReferences":{},"object":"608060405234801561001057600080fd5b5060405161093238038061093283398101604081905261002f9161009e565b6001600160a01b0381166100795760405162461bcd60e51b815260206004820152600d60248201526c24b73b30b634b21037bbb732b960991b604482015260640160405180910390fd5b600080546001600160a01b0319166001600160a01b03929092169190911790556100ce565b6000602082840312156100b057600080fd5b81516001600160a01b03811681146100c757600080fd5b9392505050565b610855806100dd6000396000f3fe608060405234801561001057600080fd5b50600436106100a95760003560e01c80637e222661116100715780637e222661146101725780638da5cb5b1461019d578063917758fe146101b0578063e1fa8e84146101c5578063f2fde38b146101d8578063fb48d6be146101eb57600080fd5b806310832da0146100ae57806327258b22146100e75780634294857f1461011a5780635de28ae01461013d5780636a9385671461015f575b600080fd5b6100d16100bc3660046106f8565b60009081526004602052604090205460ff1690565b6040516100de9190610749565b60405180910390f35b61010a6100f53660046106f8565b60009081526002602052604090205460ff1690565b60405190151581526020016100de565b61010a6101283660046106f8565b60009081526003602052604090205460ff1690565b61015061014b3660046106f8565b6101fe565b6040516100de93929190610757565b61010a61016d3660046106f8565b61024b565b600154610185906001600160a01b031681565b6040516001600160a01b0390911681526020016100de565b600054610185906001600160a01b031681565b6101c36101be36600461077d565b61027e565b005b6101c36101d33660046106f8565b61042c565b6101c36101e63660046107b1565b610532565b6101c36101f93660046107b1565b6105f2565b60008181526002602052604081205460ff16908082801561022e575060008481526003602052604090205460ff16155b60009485526004602052604090942054929460ff90931692915050565b60008181526002602052604081205460ff168015610278575060008281526003602052604090205460ff16155b92915050565b6000546001600160a01b031633146102b15760405162461bcd60e51b81526004016102a8906107e1565b60405180910390fd5b60008281526002602052604090205460ff166103005760405162461bcd60e51b815260206004820152600e60248201526d139bdd081c9959da5cdd195c995960921b60448201526064016102a8565b60008281526003602052604090205460ff16156103515760405162461bcd60e51b815260206004820152600f60248201526e105b1c9958591e481c995d9bdad959608a1b60448201526064016102a8565b600081600a81111561036557610365610711565b036103a85760405162461bcd60e51b815260206004820152601360248201527226bab9ba10383937bb34b232903932b0b9b7b760691b60448201526064016102a8565b60008281526003602090815260408083208054600160ff19918216811790925560049093529220805484939192169083600a8111156103e9576103e9610711565b0217905550817f542e448e88bbdc01179318d788377d398c8166e6b55fc57a777e4f75e8ef31ec8242604051610420929190610804565b60405180910390a25050565b6001546001600160a01b031633146104865760405162461bcd60e51b815260206004820152601960248201527f4e6f7420766572696669636174696f6e20636f6e74726163740000000000000060448201526064016102a8565b60008181526002602052604090205460ff16156104da5760405162461bcd60e51b8152602060048201526012602482015271105b1c9958591e481c9959da5cdd195c995960721b60448201526064016102a8565b60008181526002602052604090819020805460ff191660011790555181907fc8704a622f3eb8c9fc5a2ddf1775b5ea7695359b13dec8111874e266a4d5fbc9906105279042815260200190565b60405180910390a250565b6000546001600160a01b0316331461055c5760405162461bcd60e51b81526004016102a8906107e1565b6001600160a01b0381166105a25760405162461bcd60e51b815260206004820152600d60248201526c24b73b30b634b21037bbb732b960991b60448201526064016102a8565b600080546001600160a01b038381166001600160a01b0319831681178455604051919092169283917f8be0079c531659141344cd1fd0a4f28419497f9722a3daafe3b4186f6b6457e09190a35050565b6000546001600160a01b0316331461061c5760405162461bcd60e51b81526004016102a8906107e1565b6001546001600160a01b0316156106665760405162461bcd60e51b815260206004820152600e60248201526d105b1c9958591e481b1a5b9ad95960921b60448201526064016102a8565b6001600160a01b0381166106ae5760405162461bcd60e51b815260206004820152600f60248201526e496e76616c6964206164647265737360881b60448201526064016102a8565b600180546001600160a01b0319166001600160a01b0383169081179091556040517fcf28f0596d765cb31a13e5edc200ab5b5b89ad072726fd214adf805a5bca913090600090a250565b60006020828403121561070a57600080fd5b5035919050565b634e487b7160e01b600052602160045260246000fd5b600b811061074557634e487b7160e01b600052602160045260246000fd5b9052565b602081016102788284610727565b83151581528215156020820152606081016107756040830184610727565b949350505050565b6000806040838503121561079057600080fd5b823591506020830135600b81106107a657600080fd5b809150509250929050565b6000602082840312156107c357600080fd5b81356001600160a01b03811681146107da57600080fd5b9392505050565b6020808252600990820152682737ba1037bbb732b960b91b604082015260600190565b604081016108128285610727565b826020830152939250505056fea26469706673582212205ed32eb9eab9de05c61e7d4ca6af246ae3a9027f56c4534367507efb13e6135a64736f6c63430008140033","opcodes":"PUSH1 0x80 PUSH1 0x40 MSTORE CALLVALUE DUP1 ISZERO PUSH2 0x10 JUMPI PUSH1 0x0 DUP1 REVERT JUMPDEST POP PUSH1 0x40 MLOAD PUSH2 0x932 CODESIZE SUB DUP1 PUSH2 0x932 DUP4 CODECOPY DUP2 ADD PUSH1 0x40 DUP2 SWAP1 MSTORE PUSH2 0x2F SWAP2 PUSH2 0x9E JUMP JUMPDEST PUSH1 0x1 PUSH1 0x1 PUSH1 0xA0 SHL SUB DUP2 AND PUSH2 0x79 JUMPI PUSH1 0x40 MLOAD PUSH3 0x461BCD PUSH1 0xE5 SHL DUP2 MSTORE PUSH1 0x20 PUSH1 0x4 DUP3 ADD MSTORE PUSH1 0xD PUSH1 0x24 DUP3 ADD MSTORE PUSH13 0x24B73B30B634B21037BBB732B9 PUSH1 0x99 SHL PUSH1 0x44 DUP3 ADD MSTORE PUSH1 0x64 ADD PUSH1 0x40 MLOAD DUP1 SWAP2 SUB SWAP1 REVERT JUMPDEST PUSH1 0x0 DUP1 SLOAD PUSH1 0x1 PUSH1 0x1 PUSH1 0xA0 SHL SUB NOT AND PUSH1 0x1 PUSH1 0x1 PUSH1 0xA0 SHL SUB SWAP3 SWAP1 SWAP3 AND SWAP2 SWAP1 SWAP2 OR SWAP1 SSTORE PUSH2 0xCE JUMP JUMPDEST PUSH1 0x0 PUSH1 0x20 DUP3 DUP5 SUB SLT ISZERO PUSH2 0xB0 JUMPI PUSH1 0x0 DUP1 REVERT JUMPDEST DUP2 MLOAD PUSH1 0x1 PUSH1 0x1 PUSH1 0xA0 SHL SUB DUP2 AND DUP2 EQ PUSH2 0xC7 JUMPI PUSH1 0x0 DUP1 REVERT JUMPDEST SWAP4 SWAP3 POP POP POP JUMP JUMPDEST PUSH2 0x855 DUP1 PUSH2 0xDD PUSH1 0x0 CODECOPY PUSH1 0x0 RETURN INVALID PUSH1 0x80 PUSH1 0x40 MSTORE CALLVALUE DUP1 ISZERO PUSH2 0x10 JUMPI PUSH1 0x0 DUP1 REVERT JUMPDEST POP PUSH1 0x4 CALLDATASIZE LT PUSH2 0xA9 JUMPI PUSH1 0x0 CALLDATALOAD PUSH1 0xE0 SHR DUP1 PUSH4 0x7E222661 GT PUSH2 0x71 JUMPI DUP1 PUSH4 0x7E222661 EQ PUSH2 0x172 JUMPI DUP1 PUSH4 0x8DA5CB5B EQ PUSH2 0x19D JUMPI DUP1 PUSH4 0x917758FE EQ PUSH2 0x1B0 JUMPI DUP1 PUSH4 0xE1FA8E84 EQ PUSH2 0x1C5 JUMPI DUP1 PUSH4 0xF2FDE38B EQ PUSH2 0x1D8 JUMPI DUP1 PUSH4 0xFB48D6BE EQ PUSH2 0x1EB JUMPI PUSH1 0x0 DUP1 REVERT JUMPDEST DUP1 PUSH4 0x10832DA0 EQ PUSH2 0xAE JUMPI DUP1 PUSH4 0x27258B22 EQ PUSH2 0xE7 JUMPI DUP1 PUSH4 0x4294857F EQ PUSH2 0x11A JUMPI DUP1 PUSH4 0x5DE28AE0 EQ PUSH2 0x13D JUMPI DUP1 PUSH4 0x6A938567 EQ PUSH2 0x15F JUMPI JUMPDEST PUSH1 0x0 DUP1 REVERT JUMPDEST PUSH2 0xD1 PUSH2 0xBC CALLDATASIZE PUSH1 0x4 PUSH2 0x6F8 JUMP JUMPDEST PUSH1 0x0 SWAP1 DUP2 MSTORE PUSH1 0x4 PUSH1 0x20 MSTORE PUSH1 0x40 SWAP1 KECCAK256 SLOAD PUSH1 0xFF AND SWAP1 JUMP JUMPDEST PUSH1 0x40 MLOAD PUSH2 0xDE SWAP2 SWAP1 PUSH2 0x749 JUMP JUMPDEST PUSH1 0x40 MLOAD DUP1 SWAP2 SUB SWAP1 RETURN JUMPDEST PUSH2 0x10A PUSH2 0xF5 CALLDATASIZE PUSH1 0x4 PUSH2 0x6F8 JUMP JUMPDEST PUSH1 0x0 SWAP1 DUP2 MSTORE PUSH1 0x2 PUSH1 0x20 MSTORE PUSH1 0x40 SWAP1 KECCAK256 SLOAD PUSH1 0xFF AND SWAP1 JUMP JUMPDEST PUSH1 0x40 MLOAD SWAP1 ISZERO ISZERO DUP2 MSTORE PUSH1 0x20 ADD PUSH2 0xDE JUMP JUMPDEST PUSH2 0x10A PUSH2 0x128 CALLDATASIZE PUSH1 0x4 PUSH2 0x6F8 JUMP JUMPDEST PUSH1 0x0 SWAP1 DUP2 MSTORE PUSH1 0x3 PUSH1 0x20 MSTORE PUSH1 0x40 SWAP1 KECCAK256 SLOAD PUSH1 0xFF AND SWAP1 JUMP JUMPDEST PUSH2 0x150 PUSH2 0x14B CALLDATASIZE PUSH1 0x4 PUSH2 0x6F8 JUMP JUMPDEST PUSH2 0x1FE JUMP JUMPDEST PUSH1 0x40 MLOAD PUSH2 0xDE SWAP4 SWAP3 SWAP2 SWAP1 PUSH2 0x757 JUMP JUMPDEST PUSH2 0x10A PUSH2 0x16D CALLDATASIZE PUSH1 0x4 PUSH2 0x6F8 JUMP JUMPDEST PUSH2 0x24B JUMP JUMPDEST PUSH1 0x1 SLOAD PUSH2 0x185 SWAP1 PUSH1 0x1 PUSH1 0x1 PUSH1 0xA0 SHL SUB AND DUP2 JUMP JUMPDEST PUSH1 0x40 MLOAD PUSH1 0x1 PUSH1 0x1 PUSH1 0xA0 SHL SUB SWAP1 SWAP2 AND DUP2 MSTORE PUSH1 0x20 ADD PUSH2 0xDE JUMP JUMPDEST PUSH1 0x0 SLOAD PUSH2 0x185 SWAP1 PUSH1 0x1 PUSH1 0x1 PUSH1 0xA0 SHL SUB AND DUP2 JUMP JUMPDEST PUSH2 0x1C3 PUSH2 0x1BE CALLDATASIZE PUSH1 0x4 PUSH2 0x77D JUMP JUMPDEST PUSH2 0x27E JUMP JUMPDEST STOP JUMPDEST PUSH2 0x1C3 PUSH2 0x1D3 CALLDATASIZE PUSH1 0x4 PUSH2 0x6F8 JUMP JUMPDEST PUSH2 0x42C JUMP JUMPDEST PUSH2 0x1C3 PUSH2 0x1E6 CALLDATASIZE PUSH1 0x4 PUSH2 0x7B1 JUMP JUMPDEST PUSH2 0x532 JUMP JUMPDEST PUSH2 0x1C3 PUSH2 0x1F9 CALLDATASIZE PUSH1 0x4 PUSH2 0x7B1 JUMP JUMPDEST PUSH2 0x5F2 JUMP JUMPDEST PUSH1 0x0 DUP2 DUP2 MSTORE PUSH1 0x2 PUSH1 0x20 MSTORE PUSH1 0x40 DUP2 KECCAK256 SLOAD PUSH1 0xFF AND SWAP1 DUP1 DUP3 DUP1 ISZERO PUSH2 0x22E JUMPI POP PUSH1 0x0 DUP5 DUP2 MSTORE PUSH1 0x3 PUSH1 0x20 MSTORE PUSH1 0x40 SWAP1 KECCAK256 SLOAD PUSH1 0xFF AND ISZERO JUMPDEST PUSH1 0x0 SWAP5 DUP6 MSTORE PUSH1 0x4 PUSH1 0x20 MSTORE PUSH1 0x40 SWAP1 SWAP5 KECCAK256 SLOAD SWAP3 SWAP5 PUSH1 0xFF SWAP1 SWAP4 AND SWAP3 SWAP2 POP POP JUMP JUMPDEST PUSH1 0x0 DUP2 DUP2 MSTORE PUSH1 0x2 PUSH1 0x20 MSTORE PUSH1 0x40 DUP2 KECCAK256 SLOAD PUSH1 0xFF AND DUP1 ISZERO PUSH2 0x278 JUMPI POP PUSH1 0x0 DUP3 DUP2 MSTORE PUSH1 0x3 PUSH1 0x20 MSTORE PUSH1 0x40 SWAP1 KECCAK256 SLOAD PUSH1 0xFF AND ISZERO JUMPDEST SWAP3 SWAP2 POP POP JUMP JUMPDEST PUSH1 0x0 SLOAD PUSH1 0x1 PUSH1 0x1 PUSH1 0xA0 SHL SUB AND CALLER EQ PUSH2 0x2B1 JUMPI PUSH1 0x40 MLOAD PUSH3 0x461BCD PUSH1 0xE5 SHL DUP2 MSTORE PUSH1 0x4 ADD PUSH2 0x2A8 SWAP1 PUSH2 0x7E1 JUMP JUMPDEST PUSH1 0x40 MLOAD DUP1 SWAP2 SUB SWAP1 REVERT JUMPDEST PUSH1 0x0 DUP3 DUP2 MSTORE PUSH1 0x2 PUSH1 0x20 MSTORE PUSH1 0x40 SWAP1 KECCAK256 SLOAD PUSH1 0xFF AND PUSH2 0x300 JUMPI PUSH1 0x40 MLOAD PUSH3 0x461BCD PUSH1 0xE5 SHL DUP2 MSTORE PUSH1 0x20 PUSH1 0x4 DUP3 ADD MSTORE PUSH1 0xE PUSH1 0x24 DUP3 ADD MSTORE PUSH14 0x139BDD081C9959DA5CDD195C9959 PUSH1 0x92 SHL PUSH1 0x44 DUP3 ADD MSTORE PUSH1 0x64 ADD PUSH2 0x2A8 JUMP JUMPDEST PUSH1 0x0 DUP3 DUP2 MSTORE PUSH1 0x3 PUSH1 0x20 MSTORE PUSH1 0x40 SWAP1 KECCAK256 SLOAD PUSH1 0xFF AND ISZERO PUSH2 0x351 JUMPI PUSH1 0x40 MLOAD PUSH3 0x461BCD PUSH1 0xE5 SHL DUP2 MSTORE PUSH1 0x20 PUSH1 0x4 DUP3 ADD MSTORE PUSH1 0xF PUSH1 0x24 DUP3 ADD MSTORE PUSH15 0x105B1C9958591E481C995D9BDAD959 PUSH1 0x8A SHL PUSH1 0x44 DUP3 ADD MSTORE PUSH1 0x64 ADD PUSH2 0x2A8 JUMP JUMPDEST PUSH1 0x0 DUP2 PUSH1 0xA DUP2 GT ISZERO PUSH2 0x365 JUMPI PUSH2 0x365 PUSH2 0x711 JUMP JUMPDEST SUB PUSH2 0x3A8 JUMPI PUSH1 0x40 MLOAD PUSH3 0x461BCD PUSH1 0xE5 SHL DUP2 MSTORE PUSH1 0x20 PUSH1 0x4 DUP3 ADD MSTORE PUSH1 0x13 PUSH1 0x24 DUP3 ADD MSTORE PUSH19 0x26BAB9BA10383937BB34B232903932B0B9B7B7 PUSH1 0x69 SHL PUSH1 0x44 DUP3 ADD MSTORE PUSH1 0x64 ADD PUSH2 0x2A8 JUMP JUMPDEST PUSH1 0x0 DUP3 DUP2 MSTORE PUSH1 0x3 PUSH1 0x20 SWAP1 DUP2 MSTORE PUSH1 0x40 DUP1 DUP4 KECCAK256 DUP1 SLOAD PUSH1 0x1 PUSH1 0xFF NOT SWAP2 DUP3 AND DUP2 OR SWAP1 SWAP3 SSTORE PUSH1 0x4 SWAP1 SWAP4 MSTORE SWAP3 KECCAK256 DUP1 SLOAD DUP5 SWAP4 SWAP2 SWAP3 AND SWAP1 DUP4 PUSH1 0xA DUP2 GT ISZERO PUSH2 0x3E9 JUMPI PUSH2 0x3E9 PUSH2 0x711 JUMP JUMPDEST MUL OR SWAP1 SSTORE POP DUP2 PUSH32 0x542E448E88BBDC01179318D788377D398C8166E6B55FC57A777E4F75E8EF31EC DUP3 TIMESTAMP PUSH1 0x40 MLOAD PUSH2 0x420 SWAP3 SWAP2 SWAP1 PUSH2 0x804 JUMP JUMPDEST PUSH1 0x40 MLOAD DUP1 SWAP2 SUB SWAP1 LOG2 POP POP JUMP JUMPDEST PUSH1 0x1 SLOAD PUSH1 0x1 PUSH1 0x1 PUSH1 0xA0 SHL SUB AND CALLER EQ PUSH2 0x486 JUMPI PUSH1 0x40 MLOAD PUSH3 0x461BCD PUSH1 0xE5 SHL DUP2 MSTORE PUSH1 0x20 PUSH1 0x4 DUP3 ADD MSTORE PUSH1 0x19 PUSH1 0x24 DUP3 ADD MSTORE PUSH32 0x4E6F7420766572696669636174696F6E20636F6E747261637400000000000000 PUSH1 0x44 DUP3 ADD MSTORE PUSH1 0x64 ADD PUSH2 0x2A8 JUMP JUMPDEST PUSH1 0x0 DUP2 DUP2 MSTORE PUSH1 0x2 PUSH1 0x20 MSTORE PUSH1 0x40 SWAP1 KECCAK256 SLOAD PUSH1 0xFF AND ISZERO PUSH2 0x4DA JUMPI PUSH1 0x40 MLOAD PUSH3 0x461BCD PUSH1 0xE5 SHL DUP2 MSTORE PUSH1 0x20 PUSH1 0x4 DUP3 ADD MSTORE PUSH1 0x12 PUSH1 0x24 DUP3 ADD MSTORE PUSH18 0x105B1C9958591E481C9959DA5CDD195C9959 PUSH1 0x72 SHL PUSH1 0x44 DUP3 ADD MSTORE PUSH1 0x64 ADD PUSH2 0x2A8 JUMP JUMPDEST PUSH1 0x0 DUP2 DUP2 MSTORE PUSH1 0x2 PUSH1 0x20 MSTORE PUSH1 0x40 SWAP1 DUP2 SWAP1 KECCAK256 DUP1 SLOAD PUSH1 0xFF NOT AND PUSH1 0x1 OR SWAP1 SSTORE MLOAD DUP2 SWAP1 PUSH32 0xC8704A622F3EB8C9FC5A2DDF1775B5EA7695359B13DEC8111874E266A4D5FBC9 SWAP1 PUSH2 0x527 SWAP1 TIMESTAMP DUP2 MSTORE PUSH1 0x20 ADD SWAP1 JUMP JUMPDEST PUSH1 0x40 MLOAD DUP1 SWAP2 SUB SWAP1 LOG2 POP JUMP JUMPDEST PUSH1 0x0 SLOAD PUSH1 0x1 PUSH1 0x1 PUSH1 0xA0 SHL SUB AND CALLER EQ PUSH2 0x55C JUMPI PUSH1 0x40 MLOAD PUSH3 0x461BCD PUSH1 0xE5 SHL DUP2 MSTORE PUSH1 0x4 ADD PUSH2 0x2A8 SWAP1 PUSH2 0x7E1 JUMP JUMPDEST PUSH1 0x1 PUSH1 0x1 PUSH1 0xA0 SHL SUB DUP2 AND PUSH2 0x5A2 JUMPI PUSH1 0x40 MLOAD PUSH3 0x461BCD PUSH1 0xE5 SHL DUP2 MSTORE PUSH1 0x20 PUSH1 0x4 DUP3 ADD MSTORE PUSH1 0xD PUSH1 0x24 DUP3 ADD MSTORE PUSH13 0x24B73B30B634B21037BBB732B9 PUSH1 0x99 SHL PUSH1 0x44 DUP3 ADD MSTORE PUSH1 0x64 ADD PUSH2 0x2A8 JUMP JUMPDEST PUSH1 0x0 DUP1 SLOAD PUSH1 0x1 PUSH1 0x1 PUSH1 0xA0 SHL SUB DUP4 DUP2 AND PUSH1 0x1 PUSH1 0x1 PUSH1 0xA0 SHL SUB NOT DUP4 AND DUP2 OR DUP5 SSTORE PUSH1 0x40 MLOAD SWAP2 SWAP1 SWAP3 AND SWAP3 DUP4 SWAP2 PUSH32 0x8BE0079C531659141344CD1FD0A4F28419497F9722A3DAAFE3B4186F6B6457E0 SWAP2 SWAP1 LOG3 POP POP JUMP JUMPDEST PUSH1 0x0 SLOAD PUSH1 0x1 PUSH1 0x1 PUSH1 0xA0 SHL SUB AND CALLER EQ PUSH2 0x61C JUMPI PUSH1 0x40 MLOAD PUSH3 0x461BCD PUSH1 0xE5 SHL DUP2 MSTORE PUSH1 0x4 ADD PUSH2 0x2A8 SWAP1 PUSH2 0x7E1 JUMP JUMPDEST PUSH1 0x1 SLOAD PUSH1 0x1 PUSH1 0x1 PUSH1 0xA0 SHL SUB AND ISZERO PUSH2 0x666 JUMPI PUSH1 0x40 MLOAD PUSH3 0x461BCD PUSH1 0xE5 SHL DUP2 MSTORE PUSH1 0x20 PUSH1 0x4 DUP3 ADD MSTORE PUSH1 0xE PUSH1 0x24 DUP3 ADD MSTORE PUSH14 0x105B1C9958591E481B1A5B9AD959 PUSH1 0x92 SHL PUSH1 0x44 DUP3 ADD MSTORE PUSH1 0x64 ADD PUSH2 0x2A8 JUMP JUMPDEST PUSH1 0x1 PUSH1 0x1 PUSH1 0xA0 SHL SUB DUP2 AND PUSH2 0x6AE JUMPI PUSH1 0x40 MLOAD PUSH3 0x461BCD PUSH1 0xE5 SHL DUP2 MSTORE PUSH1 0x20 PUSH1 0x4 DUP3 ADD MSTORE PUSH1 0xF PUSH1 0x24 DUP3 ADD MSTORE PUSH15 0x496E76616C69642061646472657373 PUSH1 0x88 SHL PUSH1 0x44 DUP3 ADD MSTORE PUSH1 0x64 ADD PUSH2 0x2A8 JUMP JUMPDEST PUSH1 0x1 DUP1 SLOAD PUSH1 0x1 PUSH1 0x1 PUSH1 0xA0 SHL SUB NOT AND PUSH1 0x1 PUSH1 0x1 PUSH1 0xA0 SHL SUB DUP4 AND SWAP1 DUP2 OR SWAP1 SWAP2 SSTORE PUSH1 0x40 MLOAD PUSH32 0xCF28F0596D765CB31A13E5EDC200AB5B5B89AD072726FD214ADF805A5BCA9130 SWAP1 PUSH1 0x0 SWAP1 LOG2 POP JUMP JUMPDEST PUSH1 0x0 PUSH1 0x20 DUP3 DUP5 SUB SLT ISZERO PUSH2 0x70A JUMPI PUSH1 0x0 DUP1 REVERT JUMPDEST POP CALLDATALOAD SWAP2 SWAP1 POP JUMP JUMPDEST PUSH4 0x4E487B71 PUSH1 0xE0 SHL PUSH1 0x0 MSTORE PUSH1 0x21 PUSH1 0x4 MSTORE PUSH1 0x24 PUSH1 0x0 REVERT JUMPDEST PUSH1 0xB DUP2 LT PUSH2 0x745 JUMPI PUSH4 0x4E487B71 PUSH1 0xE0 SHL PUSH1 0x0 MSTORE PUSH1 0x21 PUSH1 0x4 MSTORE PUSH1 0x24 PUSH1 0x0 REVERT JUMPDEST SWAP1 MSTORE JUMP JUMPDEST PUSH1 0x20 DUP2 ADD PUSH2 0x278 DUP3 DUP5 PUSH2 0x727 JUMP JUMPDEST DUP4 ISZERO ISZERO DUP2 MSTORE DUP3 ISZERO ISZERO PUSH1 0x20 DUP3 ADD MSTORE PUSH1 0x60 DUP2 ADD PUSH2 0x775 PUSH1 0x40 DUP4 ADD DUP5 PUSH2 0x727 JUMP JUMPDEST SWAP5 SWAP4 POP POP POP POP JUMP JUMPDEST PUSH1 0x0 DUP1 PUSH1 0x40 DUP4 DUP6 SUB SLT ISZERO PUSH2 0x790 JUMPI PUSH1 0x0 DUP1 REVERT JUMPDEST DUP3 CALLDATALOAD SWAP2 POP PUSH1 0x20 DUP4 ADD CALLDATALOAD PUSH1 0xB DUP2 LT PUSH2 0x7A6 JUMPI PUSH1 0x0 DUP1 REVERT JUMPDEST DUP1 SWAP2 POP POP SWAP3 POP SWAP3 SWAP1 POP JUMP JUMPDEST PUSH1 0x0 PUSH1 0x20 DUP3 DUP5 SUB SLT ISZERO PUSH2 0x7C3 JUMPI PUSH1 0x0 DUP1 REVERT JUMPDEST DUP2 CALLDATALOAD PUSH1 0x1 PUSH1 0x1 PUSH1 0xA0 SHL SUB DUP2 AND DUP2 EQ PUSH2 0x7DA JUMPI PUSH1 0x0 DUP1 REVERT JUMPDEST SWAP4 SWAP3 POP POP POP JUMP JUMPDEST PUSH1 0x20 DUP1 DUP3 MSTORE PUSH1 0x9 SWAP1 DUP3 ADD MSTORE PUSH9 0x2737BA1037BBB732B9 PUSH1 0xB9 SHL PUSH1 0x40 DUP3 ADD MSTORE PUSH1 0x60 ADD SWAP1 JUMP JUMPDEST PUSH1 0x40 DUP2 ADD PUSH2 0x812 DUP3 DUP6 PUSH2 0x727 JUMP JUMPDEST DUP3 PUSH1 0x20 DUP4 ADD MSTORE SWAP4 SWAP3 POP POP POP JUMP INVALID LOG2 PUSH5 0x6970667358 0x22 SLT KECCAK256 0x5E 0xD3 0x2E 0xB9 0xEA 0xB9 0xDE SDIV 0xC6 0x1E PUSH30 0x4CA6AF246AE3A9027F56C4534367507EFB13E6135A64736F6C6343000814 STOP CALLER "},"methodIdentifiers":{"getRevocationReason(bytes32)":"10832da0","getStatus(bytes32)":"5de28ae0","isRegistered(bytes32)":"27258b22","isRevoked(bytes32)":"4294857f","isValid(bytes32)":"6a938567","owner()":"8da5cb5b","register(bytes32)":"e1fa8e84","revoke(bytes32,uint8)":"917758fe","setVerificationContract(address)":"fb48d6be","transferOwnership(address)":"f2fde38b","verificationContract()":"7e222661"}}}}}